:030000000211E406
:0C11E400787FE4F6D8FD75815102122BD3
:10157F000101010101010101000000000001000053
:10158F000000000000010100010101010101010142
:10159F000000000000010100000000000001000039
:1015AF000000000000000000010101010101010124
:0D16B600014101013E010142040224000037
:0A16C400D2A07F9012168BC2A02264
:021669008F1DD3
:10166B00E4F51EE51D2401FFE433FEC3E51E9FEEEA
:0F167B006480F874809850071216A7051E80E44B
:01168A00223D
:0E16A70000007F057E347DC3DDFEDEFCDFFA31
:0116B5002212
:10168B00E4FEEEC39F5012E4FDEDC3947874809496
:0B169B008050030D80F30E80E97F01FA
:0116A6002221
:1012F900EFFD7C00640170037590FEED64024C7093
:10130900037590FDED64034C70037590FBED640467
:101319004C70037590F7ED64054C70037590EFED13
:1013290064064C70037590DFED64074C700375908B
:10133900BFED64084C700375907FED4C7003759098
:10134900FFED4C70037590FFED640B4C7002F59046
:10135900ED64154C700375900FED64164C700375B0
:03136900900F22C0
:10153100EF14601C14601E146020146022146024D7
:1015410014602624FB6027240B70267580FF8024FD
:101551007580FE801F7580FD801A7580FB80157572
:1015610080F780107580EF800B7580DF8006E4F5D1
:0E15710080C2A722AF4112168BD2A7C2A722BA
:10136C00EF2492605E246EB40A00506390137FF8F1
:10137C0028287302139D0213A20213A70213AC02B6
:10138C0013B10213B60213BB0213C00213C502132E
:10139C00CA75803F8030758006802B75805B8026F7
:1013AC0075804F8021758066801C75806D801775E7
:1013BC00807D8012758007800D75807F8008758018
:0F13CC006F8003758008D2A6C2A6AF3E12168BA3
:0113DB0022EF
:0816CE0012161FAF22020F7972
:10161F0075B0F0AFB0EF64F0601B7F0A12168BAF9E
:10162F00B0EF64F0600FE5B0440FFF75B00FE5B099
:05163F0044F05FF522FC
:011644002283
:100F7900EF120CB2100D770FED7B0FD47D0FC07EF1
:100F89001005B70FE5BB0FCFBD0FBBBE0FFDD70FC8
:100F9900DEDB0FCADD0FB6DE0FF5E70FD9EB0FC5A4
:100FA900ED0FB1EE00001018753F018032753F0258
:100FB900802D753F038028753F048023753F058088
:100FC9001E753F068019753F078014753F08800F0D
:100FD900753F09800AE4F53FF524802E753F0B75AE
:100FE90024008026753F0C752400801E753F0D7501
:100FF90024008016753F0E752400800E753F0F750D
:1010090024008006753F107524007525018007E4CA
:09101900F53FF524F525AF3F2257
:0616DE0012161F0215F4B4
:1015F400D3E522940074809480401FE53F24FE606C
:101604000E14600F1460102403700F7540012275CE
:0B1614004002227540032275400422B2
:0816D600E4F5B0F522F53F2216
:0116E40022E3
:04148F00AB07AA06F7
:10149300854282758300D3E5829400E5836480945A
:0314A30080403551
:1014A6007C007D0AAF03AE02120C4E8C508D51AFFC
:1014B60082EF25E0242BF8A65008A6517C007D0A71
:0B14C600AF03AE02120C4EAA06AB07EB
:0E14D100E582158270C2158380BE7E007F2BDF
:0114DF0022EA
:10127000E4F53BC296F53CC3E53C94087480948049
:101280005074E4F53B754307C374809480405CACB4
:1012900043E41209108F0F8E0E8D0D8C0C7F007E93
:1012A000007D007C40120E62C004C005C006C0076D
:1012B000E54375F008A4247FF582E43415F583E551
:1012C00082253CF582E43583F583E493FCE412093E
:1012D00010D003D002D001D0001208001209448FB0
:1012E0004FE54F253BF53B1543809D7444253CF865
:0912F000A63B053C8081D2962248
:1015BF00754307C374809480402AE54375F008A4EF
:1015CF00247FF582E43415F583E5822FF582E43527
:1015DF0083F583E493FEC3740795432444F8A6066A
:0515EF00154380CF222E
:1014E000EFFD7C007002F580ED64014C70037580A7
:1014F00080ED64024C7003758040ED64034C700312
:10150000758020ED64044C7003758010ED64054C0B
:101510007003758008ED64064C7003758004ED64FB
:10152000074C7003758002ED64084C7003758001F0
:011530002298
:10143D00EFFD7C006408700375A0FFED4C70037523
:10144D00A0FEED64014C700375A0FDED64024C70BF
:10145D000375A0FBED64034C700375A0F7ED6404F8
:10146D004C700375A0EFED64054C700375A0DFEDB6
:10147D0064064C700375A0BFED64074C700375A036
:02148D007F22BC
:10164500C297E4F53CD3E53C94087480948050112E
:101655007580FF7F0512143D7F0112168B053C80B6
:04166500E4D2972212
:1010BC00E4F53CC3E53C9408748094804003021131
:1010CC0054C297E4F543C3E543940874809480506C
:1010DC0028E54375F008A4247FF582E43415F583E4
:1010EC00E582253CF582E43583F583E493FF744473
:1010FC002543F8A607054380CDE4F580AF3C1214D8
:10110C003DE54464017002D280E54564017002D271
:10111C0081E54664017002D282E54764017002D217
:10112C0083E54864017002D284E54964017002D2FF
:10113C0085E54A64017002D286E54B64017002D2E7
:08114C0087D297053C0210BF99
:011154002278
:10115500E4F53CD3E53C9408748094804003021187
:01116500E3A6
:10116600751201D3E512940374809480506A7FF45B
:0611760012168BEF605E13
:10117C007444253CF8E675F06484F5137F01121570
:10118C0031AF1312136C7444253CF8E675F064848B
:10119C00E5F075F00A84F5147F02121531AF1412C4
:1011AC00136C7444253CF8E675F06484E5F075F036
:1011BC000A8485F0157F03121531AF1512136C7468
:0C11CC0044253CF8E6F5807F0512143D38
:0611D800809A0512808BD5
:0611DE00053C021158223D
:1013DC007B0179017E018B1B6306FFEEB50302D204
:1013EC0094EBF4B50602C294E4F523E523D3940AF6
:1013FC007480948050E26301FFE9B50302D290EB54
:10140C00F4B50102C290E4F529E529D39464748003
:10141C0094805019E4F52AE52AD39464748094805E
:10142C0050071210BC052A80EE052980DC052380AC
:01143C00BAF5
:10080000EC4D6011E8497017ED33EC3304600DE4F2
:10081000FCFFFEFD22E933E8330470F80209B01250
:10082000097B58046009E4CC248150062850090251
:1008300009BA2840030209B7C0E0EB4A7044B98006
:1008400006D0E0FB0209A6EF4E701CBD8008EBFF4E
:10085000EAFEE9FD80EBE98DF0A4FEE5F00208E98F
:10086000E9CDF9EAFEEBFFEF89F0A4FCE5F0CE89D3
:10087000F0A42EFFE435F0CD89F0A42DFEE435F090
:100880008067EF4E7005BD80D780C3EF8BF0A4ACBE
:10089000F0EE8BF0A42CFCE435F0F8EF8AF0A42CF9
:1008A000E5F038FCE433CB8DF0A42CFCE5F03BF80C
:1008B000EE8AF0A42CFCE5F038F8E433CF89F0A4FC
:1008C0002CFCE5F038CF3400CE89F0A42FFFE5F002
:1008D0003EFEE433C98DF0A42EFEE5F039CD8AF05A
:1008E000A42FFFE5F03EFEE43DFD33D0E0FB5007D2
:1008F0000BBB000F0209BAEC2CFCEF33FFEE33FE0A
:06090000ED33FD02099237
:1009060075F020800E75F010800575F0087D007E6C
:10091600007F003392D530D503120C84EC3340109F
:10092600EF33FFEE33FEED33FDEC33FCD5F0ED2275
:0E093600E5F0247EA2D513CC92E7CDCEFF22B1
:10094400EDD2E7CD33EC3392D524814006E4FFFEAB
:10095400FDFC22FCE4CFCECDCC24E0501174FF800A
:10096400EDC3CC13CCCD13CDCE13CECF13CF0470A7
:07097400F030D5DE020C8417
:100E62008F0B8E0A8D098C08E4FFFE7D807C3FABE0
:100E72000BAA0AA909A808120AD77009AF0BAE0A71
:100E8200AD09AC0822AF0BAE0AAD09AC081209C518
:100E9200FBAF0FAE0EAD0DAC0C1209C5FFBF0108C2
:100EA200E4FFFE7D807C3F22EF64046022EB640459
:100EB200601DBB0127E4FFFEFDFCAB0FAA0EA90DCE
:100EC200A80C120AD760084006E4FFFEFDFC22745B
:100ED200FFF50FF50EF50DF50C020F70E4F510F5A8
:100EE20011FFFEFDFCAB0BAA0AA909A808120AD73A
:100EF200504BAF0FAE0EAD0DAC0C1209448E108FDD
:100F020011AC10AD11EC12090BC8ECC8C9EDC9CA7D
:100F1200EECACBEFCBAF0FAE0EAD0DAC0C1209E2A9
:100F2200E4FBFAF9F8120AD770A5AF0BAE0AAD09C5
:100F3200AC08120B508F0B8E0A8D098C08AF0BAECA
:100F42000AAD09AC08120D61AB0FAA0EA90DA80CCF
:100F520012080012105A8F0F8E0E8D0D8C0CE51197
:100F620030E00B120B508F0F8E0E8D0D8C0CAF0FCD
:070F7200AE0EAD0DAC0C2228
:10097B00E9D2E7C933E833F892D5EDD2E7CD33ECC2
:07098B0033FC5002B2D5223B
:10099200EC30E7100FBF000C0EBE00080DBD0004C6
:1009A2000BEB6014A2D5EB13FCED92E7FD2274FF72
:1009B200FCFDFEFF22E480F8A2D574FF13FC7D80CB
:0309C200E480EFDF
:1009C500ED33EC33601004700FED547F7005740245
:0A09D50092E0227404220422E422BE
:1009DF000209B0E86480F8E933E83360110460F08D
:1009EF00ED33EC337009E8FCE9FDEAFEEBFF22047E
:1009FF0060DED3EB9FEA9EE99DE8C2E78CF0C2F779
:100A0F0095F0400CE8CCF8E9CDF9EACEFAEBCFFB44
:100A1F0012097B85D0F05804700320D5B3E8047019
:100A2F00075002B2D50209BA92D5EC0460F7E4CCB4
:100A3F00C0E0C398F8603B94186008400DD0E0FB0D
:100A4F00020992E4FBFAC9FC8028E830E406E4C905
:100A5F00FBE4CAFCE830E305E4C9CACBFCE8540761
:100A6F006010F8C3E913F9EA13FAEB13FBEC13FC6C
:100A7F00D8F130F52FC3E49CFCEF9BFFEE9AFEED0F
:100A8F0099FDD0E0FBEF4E4D4C701222DB030209B3
:100A9F00B7EC2CFCEF33FFEE33FEED33FDED30E71B
:100AAF00EB020992EF2BFFEE3AFEED39FDD0E0FBA2
:100ABF0050130BBB00030209BAED13FDEE13FEEF4B
:080ACF0013FFEC13FC02099275
:100AD70074F8CC6480CCC86480C8F58204604FC3C6
:100AE700EB9FF5F0EA9E42F0E99D42F0E89C45F065
:100AF700603C501DE5825FFFE582D313CB5BCBF4EF
:100B07002B5582FB50280ABA002409B90020088017
:100B17001DE5825BFBE582D313CF5FCFF4C3132FB1
:100B27005582FF50090EBE00050DBD00010CC3EB39
:100B37009FF5F0EA9E42F0E99D42F0E89C45F0609F
:090B470007CC4820E701B3EC22C1
:100B5000ED33EC33600A047003BD8004ECB2E7FCB3
:010B60002272
:1010220033DA929E35B16011377FE5FE392184892A
:101032003AAEC3FF3C1D955B3D6358473E75FDF0DC
:101042003F3172183F800000C2D50209BA0209B0CE
:10105200BD80FA50F30209B7ED33EC330460F17B43
:101062003B7AAA79B8783F120800ED33EC3392D577
:10107200247B5011A2D570DB500BED448024045028
:1010820004A2D580CEEFFBEEFAEDF9ECF81209449A
:10109200EFF582F404FC1209101209E6C0829010E6
:1010A200227409120C10ED33CC33D0F092D525F016
:0A10B200A2D57001C313CC13FD2278
:100D2D003E9248DA3ECCCCCD3F2AAAAB4000000023
:100D3D003F8000003F9837F03FB504F33FD744FCA8
:100D4D003E3172173EB172173F0515913EDE5BD9EC
:100D5D00D2008002C200EDD2E7F8CD33EC3304703F
:100D6D000BBD800592D50209BA0209B040FBD31420
:100D7D0060F2F5F07C3FEE7A00C39496C8948B40F8
:100D8D00230AC89469C8941A401A0AC89468C8946A
:100D9D001F40110AC8945AC89425400805F07A00DE
:100DAD00CDC2E7CDC0F08C168D178E188F19EA23A2
:100DBD0023C0E0243DF582E4340DF583120CA2121C
:100DCD0009E6ECC0E0EDC0E0EEC0E0EFC0E0120CD3
:100DDD0092A816A917AA18AB191209E2D0E0FBD0F8
:100DED00E0FAD0E0F9D0E0B2E7F8120B648C168D82
:100DFD00178E188F19900D2D7403120C01A816A9BA
:100E0D0017AA18AB19120800D0E0600F2449F5821B
:100E1D00E4340DF583120CA21209E68C168D178E93
:100E2D00188F19D0E0C3947FFDE49400FC12090BD8
:100E3D007B187A727931783F120800A816A917AA83
:100E4D0018AB191209E630000B7BD97A5B79DE7885
:050E5D003E1208002216
:100B61000209BAEC5D046005E8590470030209B09A
:100B710012097B580460F6EC4860F2EC7004FDFE4B
:100B8100FF22C860DB2481C85009C3986002500667
:100B91000209B79850CAF582E9294B4A7005AB8220
:100BA1000209A675F0007C1A7880C3EF9BEE9AEDDE
:100BB10099400DC3EF9BFFEE9AFEED99FDE842F0DF
:100BC100DC23ACF0D0E0FFD0E0FED0E0FDAB822032
:100BD100E7101BEB60BAEC2CFCEF33FFEE33FEEDBC
:100BE10033FD020992E803F830E705C0F075F00023
:100BF100EF2FFFEE33FEED33FD40B830E7C280AAA0
:100C0100C0E0EFFBEEFAEDF9ECF8120800D0E0F5E8
:100C1100F0EFFBEEFAEDF9ECF8120C92A3A3A3A30B
:100C2100E8C0E0E9C0E0EAC0E0EBC0E0C0F01208D3
:100C310000120CA2A3A3A3A31209E6D0F0D0E0FBFB
:0D0C4100D0E0FAD0E0F9D0E0F8D5F0D422F0
:1011F0000213DCE493A3F8E493A34003F68001F226
:1012000008DFF48029E493A3F85407240CC8C333FF
:10121000C4540F4420C8834004F456800146F6DFCE
:10122000E4800B01020408102040809016B6E47E92
:10123000019360BCA3FF543F30E509541FFEE493C3
:10124000A360010ECF54C025E060A840B8E493A38A
:10125000FAE493A3F8E493A3C8C582C8CAC583CAB5
:10126000F0A3C8C582C8CAC583CADFE9DEE780BE6D
:0116C3000026
:100C4E00C2D5EC30E709B2D5E4C39DFDE49CFCEEC1
:100C5E0030E715B2D5E4C39FFFE49EFE120CD8C355
:100C6E00E49DFDE49CFC8003120CD830D507C3E450
:060C7E009FFFE49EFE2230
:0E0C8400C3E49FFFE49EFEE49DFDE49CFC2281
:100C9200E493FC740193FD740293FE740393FF22A8
:100CA200E493F8740193F9740293FA740393FB22A8
:100CB200D083D082F8E4937012740193700DA3A3D1
:100CC20093F8740193F5828883E4737402936860E5
:060CD200EFA3A3A380DFE5
:100CD800BC000BBE0029EF8DF084FFADF022E4CC00
:100CE800F875F008EF2FFFEE33FEEC33FCEE9DECC9
:100CF800984005FCEE9DFE0FD5F0E9E4CEFD22ED0F
:100D0800F8F5F0EE8420D21CFEADF075F008EF2F58
:100D1800FFED33FD4007985006D5F0F222C398FD49
:050D28000FD5F0EA22E6
:00000001FF
