:03000000020800F3
:0C080000787FE4F6D8FD758154020847AB
:0A0B59003F065B4F666D7D077F6F5E
:10099700114420202020202020202020202020203B
:1009A700202000112B202020202020202020202064
:0609B7002020202020009A
:070B29007FFA120B307FFA86
:060B3000EFC313FFDFFE1E
:010B3600229C
:0F0B1A00AE071EEE6008120B29120B2980F42281
:100AD100AD077F05120B1AC2A5C2A3C2A400D2A5FD
:050AE1008D80C2A5227A
:100AA400AD077F05120B1AC2A5D2A3C2A400D2A51A
:070AB4008D80C2A5C2A32240
:040A2800AE07AB0565
:100A2C00EEC3941074809480EE400524B0FC8003D7
:0D0A3C002480FCAF04120AD1AF03020AA40B
:060934008B0A8A0B890CFE
:10093A00EFC454F0F50DE4F50EC3E50E941074807F
:10094A009480501BAF0D050DAB0AAA0BA90C850E9E
:0F095A008275830012096AFD120A28050E80DAE1
:01096900226B
:1009E2007F0F120B1A7F38120AD17F38120AD17F79
:1009F20038120AD17F06120AD17F0C120AD17F0166
:030A0200020AD114
:10088C00E5232430F52DE5242430F52F752E2E7517
:10089C003156E5252430F534E5262430F53675350A
:1008AC002E753856E5272430F546E5282430F548D2
:1008BC0075472E754A56E5292430F54DE52A243026
:1008CC00F54F754E2E7551567B007A00792BE4FF4F
:0E08DC001209347B007A0079447F010209344E
:100A8800EFD39400748094804011E4FDFC0DBD0008
:0B0A9800010CED647D4C70F51F80E543
:010AA3002230
:100AFA00438910758DFFE4F58BD2AFD2ABD28E222B
:0C0B3700D2A000D2A100C2A000C2A122E6
:0C0B4300C2A000D2A100D2A000C2A122DA
:0A0AE600AC07120B377F90120A498B
:0A0AF000C2A000D2A100C2A10022A2
:0A0B4F00D2A000D2A100C2A1002232
:100A49007E08AD07C2A100ED548064807004D2A075
:0F0A59008002C2A0D2A1EF25E0FDFFDEE5C2A121
:010A6800226B
:1009BE00E4FFFE7D08D2A0C2A100D2A10030A005A6
:1009CE0043070180035307FEED146005EF25E0FE9B
:0309DE00FFDDE456
:0109E10022F3
:100ABB00120AE67F40120A49120AF0AF04120A49E1
:060ACB00120AF0020B43C9
:100A0500120AE6EC4440FF120A49120AF0120B37AB
:100A15007F91120A49120AF01209BEC2A1120B4FA8
:030A2500020B437E
:100B0A00D2A6E4F580C2A6D2A7F580C2A7C2A422C3
:1008EA001209E27F14120A88120AFA120B0AAF08D6
:1008FA00120ABB7508FF7F14120A883000F0C20082
:10090A00E4FF120A058F09E4FF120A05EF75F032B7
:10091A0084F523E4FF120A05EF75F03284E5F075D9
:0A092A00F00A84F52412088C80C442
:03001B00020A696D
:020A6900C0E0EB
:100A6B00758DFB758B000522E5227002052164C88C
:0A0A7B0045217006F521F522D20096
:030A8500D0E0328C
:10080C000208EAE493A3F8E493A34003F68001F210
:10081C0008DFF48029E493A3F85407240CC8C333ED
:10082C00C4540F4420C8834004F456800146F6DFBC
:10083C00E4800B0102040810204080900997E47EAC
:10084C00019360BCA3FF543F30E509541FFEE493B1
:10085C00A360010ECF54C025E060A840B8E493A378
:10086C00FAE493A3F8E493A3C8C582C8CAC583CAA3
:10087C00F0A3C8C582C8CAC583CADFE9DEE780BE5B
:0109BD000039
:10096A00BB010CE58229F582E5833AF583E0225042
:10097A0006E92582F8E622BBFE06E92582F8E2228C
:0D098A00E58229F582E5833AF583E49322A6
:00000001FF
