:03000000020A17DA
:0C0A1700787FE4F6D8FD758122020A5EAB
:0F0E060001140101120101100001150001160075
:100DD800E4FEEEC39F5012E4FDEDC3947874809452
:090DE8008050030D80F30E80E938
:010DF10022DF
:100BAB00EFFD7C00640170037590FEED64024C70E8
:100BBB00037590FDED64034C70037590FBED6404BD
:100BCB004C70037590F7ED64054C70037590EFED69
:100BDB0064064C70037590DFED64074C70037590E1
:100BEB00BFED64084C700375907FED4C70037590EE
:100BFB00FFED4C70037590FFED640B4C7002F5909C
:100C0B00ED64154C700375900FED64164C70037505
:030C1B00900F2215
:100D4A00EF14601C14601E146020146022146024C6
:100D5A0014602624FB6027240B70267580FF8024EC
:100D6A007580FE801F7580FD801A7580FB80157561
:100D7A0080F780107580EF800B7580DF8006E4F5C0
:0E0D8A0080C2A722AF14120DD8D2A7C2A72292
:100C1E00EF2492605E246EB40A005063900C31F89B
:100C2E00282873020C4F020C54020C59020C5E025F
:100C3E000C63020C68020C6D020C72020C77020C33
:100C4E007C75803F8030758006802B75805B80269A
:100C5E0075804F8021758066801C75806D8017753C
:100C6E00807D8012758007800D75807F800875806D
:0F0C7E006F8003758008D2A6C2A6AF12120DD8E0
:010C8D002244
:100AA300EF1208480B26770B127B0AFE7D0AEA7EBB
:100AB3000B21B70B0DBB0AF9BD0AE5BE0B1CD70B07
:100AC30008DB0AF4DD0AE0DE0B17E70B03EB0AEFA2
:100AD300ED0ADBEE00000B29751301804975130243
:100AE3008044751303803F751304803A75130580A2
:100AF300357513068030751307802B751308802610
:100B03007513098021E4F513801C75130B80177589
:100B1300130C801275130D800D75130E8008751359
:090B23000F8003751310AF1322BB
:090E160075B0F0E4F508F51322B3
:100DBB001208C3120DF2120CF1E51064037003124A
:0D0DCB000981E510640470E8120D9880E3C2
:100CF100E510640170057F01120BABE51064027011
:100D0100057F02120BABE510640370057F03120B24
:100D1100ABE510640470057F04120BABE5176401A9
:100D210070057F05120BABE517640270057F061293
:100D31000BABE517640370057F07120BABE5176476
:090D41000470057F08120BAB22BF
:100DF2007F01120D4AAF15120C1E7F06120D4AAF6B
:040E020016020C1EAA
:1008C30075B0F0AFB0EF64F070030209807F0A12D5
:1008D3000DD8AFB0EF64F0700302096575B0F0AFE7
:1008E300B0EF64F0600FE5B0440FFF75B00FE5B0F3
:1008F30044F05FF508120DF2120CF1AF08120AA3CF
:10090300AF107E00EF7011D3E513940974809480C7
:100913004003E4F513851315EF64014E702AE513C4
:1009230024F2600F146011146013240370147517FC
:100933000180157517028010751703800B75170456
:100943008006E4F517F51022E51064027084D3E500
:10095300139409748094804003E4F51385131602FD
:1009630008D50510D3E510940474809480400BE4FB
:0D097300F510F515F516F509F517120E161D
:010980002254
:10098100AF15120B2C8E1A8F1BAF16120B2C8E1C4F
:100991008F1DE51724FE601814602414602E2403B3
:1009A100703BE51B251DF51FE51A351CF51E803230
:1009B100C3E51B951DF51FE51A951CF51E8023AC9B
:1009C1001CAD1DAE1AAF1B120800800BAC1CAD1D77
:1009D100AE1AAF1B1208128E1E8F1F8005E4F51E82
:1009E100F51FAE1EAF1F7C007D0A1208128E0A8F02
:1009F1000BAE1EAF1F7C007D0A1208128C0C8D0DF0
:100A0100AF0BAE0A120C8E8F0EAF0DAE0C120C8E08
:060A11008F0F7510042296
:100D9800E5106404701C1208C3120CF17F03120DD5
:100DA8004AAF0E120C1E7F04120D4AAF0F120C1E12
:030DB80080DE22B8
:100B2C00EFB40A00506F900B39F8282873020B575A
:100B3C00020B59020B61020B69020B71020B790259
:100B4C000B81020B89020B91020B998048752000D6
:100B5C007521018045752000752102803D752000AE
:100B6C007521038035752000752104802D752000BA
:100B7C007521058025752000752106801D752000C6
:100B8C007521078015752000752108800D752000D2
:0F0B9C007521098005E4F520F521AE20AF212257
:100C8E00EE705AEFB40A005054900C9EF828287358
:100C9E00020CBC020CBE020CC3020CC8020CCD022C
:100CAE000CD2020CD7020CDC020CE1020CE6802DF9
:100CBE00751101802B751102802675110380217527
:100CCE001104801C7511058017751106801275119F
:100CDE0007800D75110880087511098003E4F51160
:030CEE00AF112221
:100A2300020DBBE493A3F8E493A34003F68001F221
:100A330008DFF48029E493A3F85407240CC8C333D4
:100A4300C4540F4420C8834004F456800146F6DFA3
:100A5300E4800B0102040810204080900E06E47E1F
:100A6300019360BCA3FF543F30E509541FFEE49398
:100A7300A360010ECF54C025E060A840B8E493A35F
:100A8300FAE493A3F8E493A3C8C582C8CAC583CA8A
:100A9300F0A3C8C582C8CAC583CADFE9DEE780BE42
:010E150000DC
:10080000EF8DF0A4A8F0CF8CF0A428CE8DF0A42E0C
:02081000FE22C6
:10081200C2D5EC30E709B2D5E4C39DFDE49CFCEE01
:1008220030E715B2D5E4C39FFFE49EFE12086EC303
:10083200E49DFDE49CFC800312086E30D507C3E4FE
:060842009FFFE49EFE2270
:10084800D083D082F8E4937012740193700DA3A33F
:1008580093F8740193F5828883E473740293686053
:06086800EFA3A3A380DF53
:10086E00BC000BBE0029EF8DF084FFADF022E4CC6E
:10087E00F875F008EF2FFFEE33FEEC33FCEE9DEC37
:10088E00984005FCEE9DFE0FD5F0E9E4CEFD22ED7D
:10089E00F8F5F0EE8420D21CFEADF075F008EF2FC7
:1008AE00FFED33FD4007985006D5F0F222C398FDB8
:0508BE000FD5F0EA2255
:00000001FF
