:030000000209589A
:0C095800787FE4F6D8FD75812702099F26
:0D0CB000012201011F01012304020A0000BE
:0A0CBE00D2A07F90120C87C2A02282
:020C39008F2406
:100C3B00750E01E4F525E5242401FFE433FEC3E53D
:100C4B00259FEE6480F87480985007120CA105253F
:050C5B0080E4E4F50E49
:010C60002271
:0E0CA10000007F057E347DC3DDFEDEFCDFFA41
:010CAF002222
:100C8700E4FEEEC39F5012E4FDEDC39478748094A4
:090C97008050030D80F30E80E98A
:010CA0002231
:1009E400EFFD7C00640170037590FEED64024C70B1
:1009F400037590FDED64034C70037590FBED640486
:100A04004C70037590F7ED64054C70037590EFED31
:100A140064064C70037590DFED64074C70037590A9
:100A2400BFED64084C700375907FED4C70037590B6
:100A3400FFED4C70037590FFED640B4C7002F59064
:100A4400ED64154C700375900FED64164C700375CE
:030A5400900F22DE
:100BC000EF14601C14601E14602014602214602452
:100BD00014602624FB6027240B70267580FF802478
:100BE0007580FE801F7580FD801A7580FB801575ED
:100BF00080F780107580EF800B7580DF8006E4F54C
:0E0C000080C2A722AF22120C87D2A7C2A72261
:100A5700EF2492605E246EB40A005063900A6AF82D
:100A6700282873020A88020A8D020A92020A97024C
:100A77000A9C020AA1020AA6020AAB020AB0020AEB
:100A8700B575803F8030758006802B75805B80262A
:100A970075804F8021758066801C75806D80177505
:100AA700807D8012758007800D75807F8008758036
:0F0AB7006F8003758008D2A6C2A6AF1F120C87EE
:010AC600220D
:080CC800120C61AF090208B132
:100C610075B0F0AFB0EF64F0601B7F0A120C87AF74
:100C7100B0EF64F0600FE5B0440FFF75B00FE5B061
:050C810044F05FF509DD
:010C8600224B
:1008B100EF12083609457709257B090C7D08F87E7A
:1008C100093DB7091DBB0907BD08F3BE0935D709A5
:1008D10016DB0902DD08EEDE092DE70911EB08FD43
:1008E100ED08E9EE00000950752001803275200203
:1008F100802D7520038028752004802375200580B4
:100901001E75200680197520078014752008800F38
:10091100752009800AE4F520F50A802E75200B75F3
:100921000A00802675200C750A00801E75200D7541
:100931000A00801675200E750A00800E75200F754D
:100941000A008006752010750A00750B018005E408
:07095100F50AF50BAF2022AF
:060CD800120C61020C0E7B
:100C0E00D3E509940074809480401FE52024FE6093
:100C1E000E14600F1460102403700F7521012275DD
:0B0C2E002102227521032275210422FF
:080CD000E4F5B0F509F520225E
:010CE00022F1
:040B6F00AB07AA0620
:100B7300852382758300D3E5829400E583648094A2
:030B83008040357A
:100B86007C007D0AAF03AE021208008C268D27AFCB
:100B960082EF25E0240FF8A62608A6277C007D0A0A
:0B0BA600AF03AE02120800AA06AB0766
:0E0BB100E582158270C2158380BE7E007F0F24
:010BBF002213
:100AC700EFFD3395E0FC4D70037590FFED64014C2D
:100AD700700375907FED64024C700375903FED6471
:100AE700034C700375901FED64044C700375900FF1
:100AF700ED64054C7003759007ED64064C70037543
:100B07009003ED64074C7003759001ED64084C7019
:040B170002F5902231
:100B1B00EFFD3395E0FC4D70037590FFED64014CD8
:100B2B0070037590FEED64024C70037590FCED64E0
:100B3B00034C70037590F8ED64044C70037590F0E2
:100B4B00ED64054C70037590E0ED64064C70037515
:100B5B0090C0ED64074C7003759080ED64084C7089
:040B6B0002F59022DD
:020CDE0080FE96
:10096400020CDEE493A3F8E493A34003F68001F2BF
:1009740008DFF48029E493A3F85407240CC8C33394
:10098400C4540F4420C8834004F456800146F6DF63
:10099400E4800B0102040810204080900CB0E47E37
:1009A400019360BCA3FF543F30E509541FFEE49358
:1009B400A360010ECF54C025E060A840B8E493A31F
:1009C400FAE493A3F8E493A3C8C582C8CAC583CA4A
:1009D400F0A3C8C582C8CAC583CADFE9DEE780BE02
:010CBD000036
:10080000C2D5EC30E709B2D5E4C39DFDE49CFCEE13
:1008100030E715B2D5E4C39FFFE49EFE12085CC327
:10082000E49DFDE49CFC800312085C30D507C3E422
:060830009FFFE49EFE2282
:10083600D083D082F8E4937012740193700DA3A351
:1008460093F8740193F5828883E473740293686065
:06085600EFA3A3A380DF65
:10085C00BC000BBE0029EF8DF084FFADF022E4CC80
:10086C00F875F008EF2FFFEE33FEEC33FCEE9DEC49
:10087C00984005FCEE9DFE0FD5F0E9E4CEFD22ED8F
:10088C00F8F5F0EE8420D21CFEADF075F008EF2FD9
:10089C00FFED33FD4007985006D5F0F222C398FDCA
:0508AC000FD5F0EA2267
:00000001FF
