:03000000020800F3
:0C080000787FE4F6D8FD758128020847D7
:1008B80020200854686520776F726C642069732063
:1008C800612062656175746966756C20706C61631E
:0308D800650A00AE
:0F088C00C2A48F80C2A57F0A12089BD2A57F0A43
:10089B00AD071FED6016E4FEEEFD3395E0FCC3EDF6
:0C08AB009478EC6480948050E70E80ECA0
:0108B700221E
:08091400C2A312088CC2A52247
:1008DC007F381209147F011209147F061209147F44
:0908EC000C1209147F80020914AA
:08091C00D2A312088CC2A5222F
:1008F500E4F5281209061208DC12092412091C80E5
:01090500F8F9
:0E090600758920758DFD759850D28EC298228D
:070924003098FDAF99C29865
:01092B0022A9
:10080C000208F5E493A3F8E493A34003F68001F205
:10081C0008DFF48029E493A3F85407240CC8C333ED
:10082C00C4540F4420C8834004F456800146F6DFBC
:10083C00E4800B01020408102040809008B8E47E8C
:10084C00019360BCA3FF543F30E509541FFEE493B1
:10085C00A360010ECF54C025E060A840B8E493A378
:10086C00FAE493A3F8E493A3C8C582C8CAC583CAA3
:10087C00F0A3C8C582C8CAC583CADFE9DEE780BE5B
:0108DB00001C
:00000001FF
