:03000000020800F3
:0C080000787FE4F6D8FD758108020847F7
:0308DF000108000D
:0A08D500C2871208C912088C80FBCC
:0C08C900758901758C4B758AFED28C225B
:10088C00308DFDC28D0508AF08EF3395E0FEEF64A7
:10089C00144E700BF508D2877F051208ACC2872264
:1008AC00AD071FED6016E4FEEEFD3395E0FCC3EDE5
:0C08BC009478EC6480948050E70E80EC8F
:0108C800220D
:10080C000208D5E493A3F8E493A34003F68001F225
:10081C0008DFF48029E493A3F85407240CC8C333ED
:10082C00C4540F4420C8834004F456800146F6DFBC
:10083C00E4800B01020408102040809008DFE47E65
:10084C00019360BCA3FF543F30E509541FFEE493B1
:10085C00A360010ECF54C025E060A840B8E493A378
:10086C00FAE493A3F8E493A3C8C582C8CAC583CAA3
:10087C00F0A3C8C582C8CAC583CADFE9DEE780BE5B
:0108E2000015
:00000001FF
