:03000000020AE50C
:0C0AE500787FE4F6D8FD75813F020B2CF1
:100FC600012A01012702012E04020B00000108007C
:090FD600013A00012C00012D007C
:0A0FFA00D2A07F90120FACC2A0221B
:020F6D008F3CB7
:100F6F00E4F53DE53C2401FFE433FEC3E53D9FEE90
:0F0F7F006480F87480985007120FE0053D80E4FD
:010F8E002240
:0E0FE00000007F057E347DC3DDFEDEFCDFFAFF
:010FEE0022E0
:100FAC00E4FEEEC39F5012E4FDEDC394787480947C
:090FBC008050030D80F30E80E962
:010FC5002209
:100CE100EFFD7C00640170037590FEED64024C70B1
:100CF100037590FDED64034C70037590FBED640486
:100D01004C70037590F7ED64054C70037590EFED31
:100D110064064C70037590DFED64074C70037590A9
:100D2100BFED64084C700375907FED4C70037590B6
:100D3100FFED4C70037590FFED640B4C7002F59064
:100D4100ED64154C700375900FED64164C700375CE
:030D5100900F22DE
:0C0DB7007F03120DC3AF14120C697F04FF
:100DC300EF14601C14601E1460201460221460244D
:100DD30014602624FB6027240B70267580FF802473
:100DE3007580FE801F7580FD801A7580FB801575E8
:100DF30080F780107580EF800B7580DF8006E4F547
:0E0E030080C2A722AF2A120FACD2A7C2A7222C
:100C6900EF1209270C98000C9D010CA2020CA70396
:100C79000CAC040CB1050CB6060CBB070CC0080C77
:100C8900C5090CCF140CD4150CCA6E00000CE07504
:100C9900803F803A758006803575805B803075802D
:100CA9004F802B758066802675806D802175807DCB
:100CB900801C758007801775807F801275806F8012
:100CC9000D75800880087580468003758070D2A6EE
:070CD900C2A6AF27120FAC09
:010CE00022F1
:0B0FEF00120800AF0A1209A2AF28226E
:1009A200EF1209270A36770A167B09FD7D09E97ECF
:1009B2000A2EB70A0EBB09F8BD09E4BE0A26D70AF9
:1009C20007DB09F3DD09DFDE0A1EE70A02EB09EEA7
:1009D200ED09DAEE00000A4175280180327528021D
:1009E200802D7528038028752804802375280580AA
:1009F2001E75280680197528078014752808800F2F
:100A0200752809800AE4F528F50B802E75280B75E8
:100A12000B00802675280C750B00801E75280D753D
:100A22000B00801675280E750B00800E75280F7549
:100A32000B008006752810750B00750C018005E40B
:0D0A4200F50BF50C750B00750C00AF2822AC
:06100D00120800020F1999
:100F1900D3E50A940074809480401FE52824FE607C
:100F29000E14600F1460102403700F7529012275C7
:0B0F39002902227529032275290422D9
:0910040075B0F0E4F50AF52822AC
:0110190022B4
:040E6A00AB07AA0622
:100E6E00852E82758300D3E5829400E58364809499
:030E7E008040357C
:100E81007C007D0AAF03AE021208F18C3E8D3FAFAC
:100E910082EF25E02416F8A63E08A63F7C007D0AD5
:0B0EA100AF03AE021208F1AA06AB0777
:0E0EAC00E582158270C2158380BE7E007F161F
:010EBA002215
:100EEB00E50864017007F528120BF080F3E5087034
:100EFB00EF120800120F44120E11E53A640370034F
:0E0F0B00120A4FE53A640470D7120EBB80D272
:100BF00075B0F0AFB0EF64F060457F0A120FACAF94
:100C0000B0EF64F0603975B0F0AFB0EF64F0600F32
:100C1000E5B0440FFF75B00FE5B044F05FF50AAFE3
:100C20000A1209A2E52875F00A84F514E52875F082
:100C30000A8485F015120DB7AF15120C6980C0AF8C
:100C40000A1209A2E52875F00A84F514E52875F062
:100C50000A8485F0157F01120DC3AF14120C697F51
:090C600002120DC3AF15020C696C
:100E1100E53A640170057F01120CE1E53A64027064
:100E2100057F02120CE1E53A640370057F03120CA1
:100E3100E1E53A640470057F04120CE1E52F6401D9
:100E410070057F05120CE1E52F640270057F061223
:100E51000CE1E52F640370057F07120CE1E52F64B7
:090E61000470057F08120CE12267
:06101300121004020FEFB1
:100F4400E53AFB7A00640160147F01120DC3AF2CF3
:100F5400120C697F06120DC3AF2D020C69EB6401FC
:090F64004A7005AF2F120F8F2215
:100F8F00EF1460030470157F14120C697F03120DA8
:0D0F9F00C37580FF75A0FF7F15120DBE22E7
:1008000075B0F0AFB0EF64F070030208DE7F0A123B
:100810000FACAFB0EF64F070030208DE75B0F0AF5C
:10082000B0EF64F0600FE5B0440FFF75B00FE5B0B6
:1008300044F05FF50A120F44AF0A1209A2AF3A7EE4
:1008400000EF701FAD28D3ED9409748094804010A0
:10085000ED940C748094804004753A0122E4F528EC
:1008600085282CEF64014E704ED3E528940A7480DD
:1008700094805004753A0222E52824F36023146022
:100880002414602514602624057026AF087E00EF2E
:1008900064017004F508801FEF4E701B750801801D
:1008A00016752F0122752F0222752F0322752F0432
:1008B00022E4F52FF53A22E53A64026003020812B9
:1008C000AF28D3EF940974809480400CEF640C70CF
:0E08D00004753A0322E4F52885282D0208124B
:0108DE0022F7
:100A4F00AF2C120B718E328F33AF2D120B718E3480
:100A5F008F35E52F24FE601814602414602E2403B4
:100A6F00703BE5332535F537E5323534F5368032D1
:100A7F00C3E5339535F537E5329534F5368023AC3C
:100A8F0034AD35AE32AF331208DF800BAC34AD3539
:100A9F00AE32AF331208F18E368F378005E4F5365C
:100AAF00F537AE36AF377C007D0A1208F18E108F06
:100ABF0011AE36AF377C007D0A1208F18C128D1300
:100ACF00AF11AE10120D548F14AF13AE12120D548E
:060ADF008F15753A042298
:100EBB00E4F528E53A64047026120800C3E528948B
:100ECB000174809480400EE4F53AF52CF52DF50D68
:100EDB00F52F121004120DB7AF15120C6980D42226
:100B7100EFB40A00506F900B7EF8282873020B9C8B
:100B8100020B9E020BA6020BAE020BB6020BBE02BB
:100B91000BC6020BCE020BD6020BDE804875380065
:100BA1007539018045753800753902803D75380009
:100BB1007539038035753800753904802D75380015
:100BC1007539058025753800753906801D75380021
:100BD1007539078015753800753908800D7538002D
:0F0BE1007539098005E4F538F539AE38AF39229A
:100D5400EE705AEFB40A005054900D64F8282873CA
:100D6400020D82020D84020D89020D8E020D930282
:100D74000D98020D9D020DA2020DA7020DAC802D4F
:100D8400752601802B752602802675260380217521
:100D94002604801C75260580177526068012752684
:100DA40007800D75260880087526098003E4F5265A
:030DB400AF262245
:100AF100020EEBE493A3F8E493A34003F68001F222
:100B010008DFF48029E493A3F85407240CC8C33305
:100B1100C4540F4420C8834004F456800146F6DFD4
:100B2100E4800B0102040810204080900FC6E47E8F
:100B3100019360BCA3FF543F30E509541FFEE493C9
:100B4100A360010ECF54C025E060A840B8E493A390
:100B5100FAE493A3F8E493A3C8C582C8CAC583CABB
:100B6100F0A3C8C582C8CAC583CADFE9DEE780BE73
:010FDF000011
:1008DF00EF8DF0A4A8F0CF8CF0A428CE8DF0A42E2D
:0208EF00FE22E7
:1008F100C2D5EC30E709B2D5E4C39DFDE49CFCEE22
:1009010030E715B2D5E4C39FFFE49EFE12094DC343
:10091100E49DFDE49CFC800312094D30D507C3E43E
:060921009FFFE49EFE2290
:10092700D083D082F8E4937012740193700DA3A35F
:1009370093F8740193F5828883E473740293686073
:06094700EFA3A3A380DF73
:10094D00BC000BBE0029EF8DF084FFADF022E4CC8E
:10095D00F875F008EF2FFFEE33FEEC33FCEE9DEC57
:10096D00984005FCEE9DFE0FD5F0E9E4CEFD22ED9D
:10097D00F8F5F0EE8420D21CFEADF075F008EF2FE7
:10098D00FFED33FD4007985006D5F0F222C398FDD8
:05099D000FD5F0EA2275
:00000001FF
