:03000000020D5B93
:0C0D5B00787FE4F6D8FD75814B020DA2F4
:100F5C000135010131010124006040000001010153
:100F6C00010101010100000000000100000000006F
:100F7C00000001010001010101010101010000005B
:100F8C000000010100000000000001000000000052
:100F9C0000000000000101010101010101014400F8
:100FAC00012A000148010127010126010133080132
:080FBC00430C01370301253B42
:0A12A400D2A07F90121216C2A02201
:0211D6008F1672
:1011D800E4F517E5162401FFE433FEC3E5179FEE97
:0F11E8006480F8748098500712128A051780E40B
:0111F70022D5
:0E128A0000007F057E347DC3DDFEDEFCDFFA52
:011298002233
:10121600E4FEEEC39F5012E4FDEDC394787480940F
:0B1226008050030D80F30E80E97F0173
:01123100229A
:100EE900EFFD7C00640170037590FEED64024C70A7
:100EF900037590FDED64034C70037590FBED64047C
:100F09004C70037590F7ED64054C70037590EFED27
:100F190064064C70037590DFED64074C700375909F
:100F2900BFED64084C700375907FED4C70037590AC
:100F3900FFED4C70037590FFED640B4C7002F5905A
:100F4900ED64154C700375900FED64164C700375C4
:030F5900900F22D4
:080003001211B0AF23020CC87A
:1011B00075B0F0AFB0EF64F0601B7F0A121216AF8B
:1011C000B0EF64F0600FE5B0440FFF75B00FE5B00D
:0511D00044F05FF5236F
:0111D50022F7
:100CC800EF1204C00D4B770D377B0D237D0D0F7E82
:100CD8000D46B70D32BB0D1EBD0D0ABE0D41D70D19
:100CE8002DDB0D19DD0D05DE0D3CE70D28EB0D1490
:100CF800ED0D00EE00000D5375320180497532028A
:100D08008044753203803F753204803A753205801D
:100D1800357532068030753207802B75320880268B
:100D28007532098021E4F532801C75320B80177505
:100D3800320C801275320D800D75320E80087532B6
:100D48000F80037532107524018005E4F532F5240F
:030D5800AF322295
:0812AE00E4F5B0F523F532224E
:100DE700E4F52DF52FC3E52F940874809480507394
:100DF700E4F52D753807C374809480405BAC38E404
:100E070012011E8F0F8E0E8D0D8C0C7F007E007DC4
:100E1700007C40120670C004C005C006C007E53854
:100E270075F008A42400F582E43400F583E58225F3
:100E37002FF582E43583F583E0FCE412011ED0032D
:100E4700D002D001D00012000E1201528F47E547A1
:100E5700252DF52D1538809E7439252FF8A62D05DB
:040E67002F80822234
:10117C00753807C3748094804029E53875F008A44D
:10118C002400F582E43400F583E5822FF582E43502
:10119C0083F583E0FEC3740795382439F8A6061549
:0411AC003880D02295
:1010BC00EFFD7C007002F580ED64014C70037580CF
:1010CC0080ED64024C7003758040ED64034C70033A
:1010DC00758020ED64044C7003758010ED64054C34
:1010EC007003758008ED64064C7003758004ED6424
:1010FC00074C7003758002ED64084C700375800119
:01110C0022C0
:10101800EFFD7C006408700375A0FFED4C7003754C
:10102800A0FEED64014C700375A0FDED64024C70E8
:101038000375A0FBED64034C700375A0F7ED640421
:101048004C700375A0EFED64054C700375A0DFEDDF
:1010580064064C700375A0BFED64074C700375A05F
:021068007F22E5
:100C3400E4F52FC3E52F9408748094804003020CDC
:100C4400C7E4F538C3E5389408748094805027E5E8
:100C54003875F008A42400F582E43400F583E582B5
:100C6400252FF582E43583F583E0FF74392538F8C0
:100C7400A607053880CEE4F580AF2F121018E539A9
:100C840064017002D280E53A64017002D281E53BCE
:100C940064017002D282E53C64017002D283E53DB6
:100CA40064017002D284E53E64017002D285E53F9E
:100CB40064017002D286E54064017002D287052F78
:040CC400020C3722C5
:1012680075450D753601752C14E4F52BF549754A4D
:02127800022250
:100A660020B41E1537D3E537940074809480500364
:100A7600E4F537C3E53794067480948040037537F0
:100A86000620B51E0537D3E53794FF7480947F5052
:100A9600037537FFC3E53794087480948040037567
:100AA600370820B61E1525D3E52594397480948021
:100AB6005003752539C3E52594407480948040031E
:100AC60075254020B71E0525D3E5259439748094F5
:100AD600805003752539C3E5259440748094804081
:100AE6000375254030B40930B50630B60320B70B80
:0C0AF60012110D121299120C3480E9222A
:1012320012127AE52A7011120A6612110D1212990F
:0B124200120C3412106A80EB020896B8
:100FC500751803E53770097F011207877F028025B1
:100FD500AF377E00BEFF07BFFF047F018017E537EF
:100FE500640770097F081207877F078008E5376463
:100FF5000870057F08020787E4F546C3E5469403B4
:1010050074809480500CE5372546FF120787054606
:0210150080E970
:0110170022B6
:10124D00E4F546C3E546940374809480500CE5257F
:0B125D002546FF120787054680E922A6
:0B129900120FC5AF4312078702124D71
:100B9C0085434B120981E54365376025AF377E00ED
:100BAC00EF2401FDEE33FCAB437A00ED6B7001ECEE
:100BBC00600FEF2402FFEE33FEEFB50312EAB50629
:100BCC000E854B43E533F404F5337548018036E567
:100BDC004365256022AF257E00EF2401FDEE33FC3A
:100BEC00ED6B7002EC6A600FEF2402FFEE33FEEF48
:100BFC00B50317EEB50213854B43E533F404F53317
:100C0C00E4F548E5332543F54322C3EB9401EA644C
:100C1C008094805004752A0A22D3EB9440EA6480B5
:080C2C0094804003752A142294
:10098100AF43EF64106019EF64186014EF642060E6
:100991000FEF6428600AEF64306005EF6438701768
:1009A100AF487E00EF64017005753307803EEF4E5E
:1009B10070417533F78035AF43EF64096019EF6417
:1009C100116014EF6419600FEF6421600AEF64296C
:1009D1006005EF6431701CAF487E00EF6401700563
:1009E1007533098007EF4E700A7533F9E5332543F6
:1009F100F54322E5332543F543B537047533F72233
:100A0100AF377E00EF2401FDEE33FCAB437A00EDFE
:100A1100B50308EAB504047533F822EF2402FFE4B4
:100A21003EFEEFB50308EEB502047533F922E54346
:100A3100B5250475330722AF257E00EF2401FDEEB5
:100A410033FCAB437A00EDB50308EAB50404753312
:100A51000822EF2402FFE43EFEEFB50307EEB502E4
:050A61000375330922BA
:1011F8008F33D3EF9400748094805003753301D3F8
:0E120800E53394097480948040037533092205
:10106A00AF33D3EF940074809480500DEF940874DA
:10107A008094804004752A0222AF437E00C3EF9415
:10108A000974809480500DEF9438748094804004E1
:10109A00752A0322C3EF9401EE648094805004758C
:1010AA002A0A22D3EF9440EE648094804003752A82
:0210BA001422FE
:10110D00E4FFEFC3940874809480502CE4FEEEC38A
:10111D00940874809480501DEF75F008A42400F598
:10112D0082E43400F583E5822EF582E43583F58380
:08113D00E4F00E80D90F80CA16
:011145002287
:10089600E52A640A703F12110D754603D3E54694A6
:1008A6003B74809480500DAF461207877408254626
:1008B600F54680E8754604D3E5469408748094802E
:1008C6005009AF46120787054680EC7F0B120EE9EA
:1008D600120C3480FBE52A6414701D12110D754646
:1008E60001D3E54694407480948050EFAF461207DA
:1008F60087120C34054680E912110D7F24120787F2
:100906007F231207877F221207877F1C1207877FA4
:100916001A1207877F141207877F131207877F1221
:100926001207877F0A1207877F041207877F031241
:1009360007877F021207877F201207877F1F12070C
:10094600877F1E1207877F161207877F0E1207877B
:100956007F06120787754638E52A2438FFE433FEFA
:10096600C3E5469FEE6480F87480985009AF46123E
:0B0976000787054680E2120C3480FB6E
:10078700EFFD7C00C39401748094805002800BD3EA
:10079700ED9440EC648094804004752A0422D3EDE4
:1007A7009400EC64809480400ED3ED9408EC648050
:1007B70094805003752901D3ED9408EC64809480EC
:1007C700400ED3ED9410EC64809480500375290299
:1007D700D3ED9410EC64809480400ED3ED9418EC24
:1007E700648094805003752903D3ED9418EC6480DA
:1007F7009480400ED3ED9420EC6480948050037570
:100807002904D3ED9420EC64809480400ED3ED94BA
:1008170028EC648094805003752905D3ED9428EC67
:1008270064809480400ED3ED9430EC6480948050C3
:1008370003752906D3ED9430EC64809480400ED381
:10084700ED9438EC648094805003752907D3ED94B8
:1008570038EC64809480400ED3ED9440EC6480942F
:10086700805003752908E5291475F008A4FEC3EF25
:100877009EF52E75F008A424F7F582E434FFF5837E
:0F088700E5822529F582E43583F5837401F0229B
:10114600AF4AEF3395E0FEAD49ED3395E0FCC3EDD4
:101156009FFBEC9EFAE52BFD3395E0FCAF03AE0258
:1011660012045C8F8CE52BFD3395E0FCAF03AE02D9
:0611760012045C8D8A22C8
:10127A00121268758901121146D28CD2AFD2A922F4
:03000B00020E6B77
:100E6B00C0E0C0F0C083C082C0D075D000C000C04D
:100E7B0001C002C003C004C005C006C00712114662
:100E8B000544C3E54494FE7480948040037544008C
:100E9B00AF45EF3395E0FEC374159FFDE49EFCAFA9
:100EAB00447E0012045CED4C70196326FFE526B5F9
:100EBB0027057590FE8009E526652760037590FF71
:100ECB00120B9CD007D006D005D004D003D002D093
:0E0EDB0001D000D0D0D082D083D0F0D0E03251
:10000E00EC4D6011E8497017ED33EC3304600DE4EC
:10001E00FCFFFEFD22E933E8330470F80201BE1244
:10002E00018958046009E4CC248150062850090245
:10003E0001C82840030201C5C0E0EB4A7044B980F4
:10004E0006D0E0FB0201B4EF4E701CBD8008EBFF42
:10005E00EAFEE9FD80EBE98DF0A4FEE5F00200F783
:10006E00E9CDF9EAFEEBFFEF89F0A4FCE5F0CE89CD
:10007E00F0A42EFFE435F0CD89F0A42DFEE435F08A
:10008E008067EF4E7005BD80D780C3EF8BF0A4ACB8
:10009E00F0EE8BF0A42CFCE435F0F8EF8AF0A42CF3
:1000AE00E5F038FCE433CB8DF0A42CFCE5F03BF806
:1000BE00EE8AF0A42CFCE5F038F8E433CF89F0A4F6
:1000CE002CFCE5F038CF3400CE89F0A42FFFE5F0FC
:1000DE003EFEE433C98DF0A42EFEE5F039CD8AF054
:1000EE00A42FFFE5F03EFEE43DFD33D0E0FB5007CC
:1000FE000BBB000F0201C8EC2CFCEF33FFEE33FEFE
:06010E00ED33FD0201A02B
:1001140075F020800E75F010800575F0087D007E66
:10012400007F003392D530D503120492EC33401093
:10013400EF33FFEE33FEED33FDEC33FCD5F0ED226F
:0E014400E5F0247EA2D513CC92E7CDCEFF22AB
:10015200EDD2E7CD33EC3392D524814006E4FFFEA5
:10016200FDFC22FCE4CFCECDCC24E0501174FF8004
:10017200EDC3CC13CCCD13CDCE13CECF13CF0470A1
:07018200F030D5DE0204920B
:100670008F0B8E0A8D098C08E4FFFE7D807C3FABDA
:100680000BAA0AA909A8081202E57009AF0BAE0A65
:10069000AD09AC0822AF0BAE0AAD09AC081201D30C
:1006A000FBAF0FAE0EAD0DAC0C1201D3FFBF0108B6
:1006B000E4FFFE7D807C3F22EF64046022EB640453
:1006C000601DBB0127E4FFFEFDFCAB0FAA0EA90DC8
:1006D000A80C1202E560084006E4FFFEFDFC22744F
:1006E000FFF50FF50EF50DF50C02077EE4F510F59C
:1006F00011FFFEFDFCAB0BAA0AA909A8081202E52E
:10070000504BAF0FAE0EAD0DAC0C1201528E108FD0
:1007100011AC10AD11EC120119C8ECC8C9EDC9CA71
:10072000EECACBEFCBAF0FAE0EAD0DAC0C1201F09D
:10073000E4FBFAF9F81202E570A5AF0BAE0AAD09B9
:10074000AC0812035E8F0B8E0A8D098C08AF0BAEBE
:100750000AAD09AC0812056FAB0FAA0EA90DA80CC3
:1007600012000E120B3A8F0F8E0E8D0D8C0CE511B0
:1007700030E00B12035E8F0F8E0E8D0D8C0CAF0FC1
:07078000AE0EAD0DAC0C2222
:10018900E9D2E7C933E833F892D5EDD2E7CD33ECBC
:0701990033FC5002B2D52235
:1001A000EC30E7100FBF000C0EBE00080DBD0004C0
:1001B0000BEB6014A2D5EB13FCED92E7FD2274FF6C
:1001C000FCFDFEFF22E480F8A2D574FF13FC7D80C5
:0301D000E480EFD9
:1001D300ED33EC33601004700FED547F700574023F
:0A01E30092E0227404220422E422B8
:1001ED000201BEE86480F8E933E83360110460F081
:1001FD00ED33EC337009E8FCE9FDEAFEEBFF220478
:10020D0060DED3EB9FEA9EE99DE8C2E78CF0C2F772
:10021D0095F0400CE8CCF8E9CDF9EACEFAEBCFFB3E
:10022D0012018985D0F05804700320D5B3E804700D
:10023D00075002B2D50201C892D5EC0460F7E4CCA8
:10024D00C0E0C398F8603B94186008400DD0E0FB07
:10025D000201A0E4FBFAC9FC8028E830E406E4C9F9
:10026D00FBE4CAFCE830E305E4C9CACBFCE854075B
:10027D006010F8C3E913F9EA13FAEB13FBEC13FC66
:10028D00D8F130F52FC3E49CFCEF9BFFEE9AFEED09
:10029D0099FDD0E0FBEF4E4D4C701222DB030201B5
:1002AD00C5EC2CFCEF33FFEE33FEED33FDED30E707
:1002BD00EB0201A0EF2BFFEE3AFEED39FDD0E0FB96
:1002CD0050130BBB00030201C8ED13FDEE13FEEF3F
:0802DD0013FFEC13FC0201A069
:1002E50074F8CC6480CCC86480C8F58204604FC3C0
:1002F500EB9FF5F0EA9E42F0E99D42F0E89C45F05F
:10030500603C501DE5825FFFE582D313CB5BCBF4E8
:100315002B5582FB50280ABA002409B90020088011
:100325001DE5825BFBE582D313CF5FCFF4C3132FAB
:100335005582FF50090EBE00050DBD00010CC3EB33
:100345009FF5F0EA9E42F0E99D42F0E89C45F06099
:0903550007CC4820E701B3EC22BB
:10035E00ED33EC33600A047003BD8004ECB2E7FCAD
:01036E00226C
:100B020033DA929E35B16011377FE5FE392184894F
:100B12003AAEC3FF3C1D955B3D6358473E75FDF001
:100B22003F3172183F800000C2D50201C80201BEE7
:100B3200BD80FA50F30201C5ED33EC330460F17B62
:100B42003B7AAA79B8783F12000EED33EC3392D596
:100B5200247B5011A2D570DB500BED44802404504D
:100B620004A2D580CEEFFBEEFAEDF9ECF8120152B9
:100B7200EFF582F404FC12011E1201F4C082900B04
:100B820002740912041EED33CC33D0F092D525F055
:0A0B9200A2D57001C313CC13FD229D
:10053B003E9248DA3ECCCCCD3F2AAAAB400000001D
:10054B003F8000003F9837F03FB504F33FD744FCA2
:10055B003E3172173EB172173F0515913EDE5BD9E6
:10056B00D2008002C200EDD2E7F8CD33EC33047039
:10057B000BBD800592D50201C80201BE40FBD3140E
:10058B0060F2F5F07C3FEE7A00C39496C8948B40F2
:10059B00230AC89469C8941A401A0AC89468C89464
:1005AB001F40110AC8945AC89425400805F07A00D8
:1005BB00CDC2E7CDC0F08C128D138E148F15EA23AC
:1005CB0023C0E0244BF582E43405F5831204B0120A
:1005DB0001F4ECC0E0EDC0E0EEC0E0EFC0E01204CF
:1005EB00A0A812A913AA14AB151201F0D0E0FBD0EE
:1005FB00E0FAD0E0F9D0E0B2E7F81203728C128D7A
:10060B00138E148F1590053B740312040FA812A9B7
:10061B0013AA14AB1512000ED0E0600F2457F5820D
:10062B00E43405F5831204B01201F48C128D138E91
:10063B00148F15D0E0C3947FFDE49400FC120119D4
:10064B007B187A727931783F12000EA812A913AA7F
:10065B0014AB151201F430000B7BD97A5B79DE7881
:05066B003E12000E220A
:10036F000201C8EC5D046005E8590470030201BE88
:10037F00120189580460F6EC4860F2EC7004FDFE3F
:10038F00FF22C860DB2481C85009C3986002500661
:10039F000201C59850CAF582E9294B4A7005AB8214
:1003AF000201B475F0007C1A7880C3EF9BEE9AEDD2
:1003BF0099400DC3EF9BFFEE9AFEED99FDE842F0D9
:1003CF00DC23ACF0D0E0FFD0E0FED0E0FDAB82202C
:1003DF00E7101BEB60BAEC2CFCEF33FFEE33FEEDB6
:1003EF0033FD0201A0E803F830E705C0F075F00017
:1003FF00EF2FFFEE33FEED33FD40B830E7C280AA9A
:10040F00C0E0EFFBEEFAEDF9ECF812000ED0E0F5DC
:10041F00F0EFFBEEFAEDF9ECF81204A0A3A3A3A3FF
:10042F00E8C0E0E9C0E0EAC0E0EBC0E0C0F01200D5
:10043F000E1204B0A3A3A3A31201F4D0F0D0E0FBDB
:0D044F00D0E0FAD0E0F9D0E0F8D5F0D422EA
:100D6700021232E493A3F8E493A34003F68001F25E
:100D770008DFF48029E493A3F85407240CC8C3338D
:100D8700C4540F4420C8834004F456800146F6DF5C
:100D9700E4800B0102040810204080900F5CE47E81
:100DA700019360BCA3FF543F30E509541FFEE49351
:100DB700A360010ECF54C025E060A840B8E493A318
:100DC700FAE493A3F8E493A3C8C582C8CAC583CA43
:100DD700F0A3C8C582C8CAC583CADFE9DEE780BEFB
:010FC400002C
:10045C00C2D5EC30E709B2D5E4C39DFDE49CFCEEBB
:10046C0030E715B2D5E4C39FFFE49EFE1204E6C349
:10047C00E49DFDE49CFC80031204E630D507C3E444
:06048C009FFFE49EFE222A
:0E049200C3E49FFFE49EFEE49DFDE49CFC227B
:1004A000E493FC740193FD740293FE740393FF22A2
:1004B000E493F8740193F9740293FA740393FB22A2
:1004C000D083D082F8E4937012740193700DA3A3CB
:1004D00093F8740193F5828883E4737402936860DF
:0604E000EFA3A3A380DFDF
:1004E600BC000BBE0029EF8DF084FFADF022E4CCFA
:1004F600F875F008EF2FFFEE33FEEC33FCEE9DECC3
:10050600984005FCEE9DFE0FD5F0E9E4CEFD22ED08
:10051600F8F5F0EE8420D21CFEADF075F008EF2F52
:10052600FFED33FD4007985006D5F0F222C398FD43
:050536000FD5F0EA22E0
:00000001FF
