:030000000209589A
:0C095800787FE4F6D8FD75812702099F26
:0D0C1D00012101011E01012204020A000054
:0A0C2B00D2A07F90120BF4C2A022A9
:020BB7008F2489
:100BB900E4F525E5242401FFE433FEC3E5259FEE92
:0F0BC9006480F87480985007120C0E052580E4A4
:010BD80022FA
:0E0C0E0000007F057E347DC3DDFEDEFCDFFAD4
:010C1C0022B5
:100BF400E4FEEEC39F5012E4FDEDC3947874809438
:090C04008050030D80F30E80E91D
:010C0D0022C4
:1009E400EFFD7C00640170037590FEED64024C70B1
:1009F400037590FDED64034C70037590FBED640486
:100A04004C70037590F7ED64054C70037590EFED31
:100A140064064C70037590DFED64074C70037590A9
:100A2400BFED64084C700375907FED4C70037590B6
:100A3400FFED4C70037590FFED640B4C7002F59064
:100A4400ED64154C700375900FED64164C700375CE
:030A5400900F22DE
:100B1800EF14601C14601E146020146022146024FA
:100B280014602624FB6027240B70267580FF802420
:100B38007580FE801F7580FD801A7580FB80157595
:100B480080F780107580EF800B7580DF8006E4F5F4
:0E0B580080C2A722AF21120BF4D2A7C2A7229F
:100A5700EF2492605E246EB40A005063900A6AF82D
:100A6700282873020A88020A8D020A92020A97024C
:100A77000A9C020AA1020AA6020AAB020AB0020AEB
:100A8700B575803F8030758006802B75805B80262A
:100A970075804F8021758066801C75806D80177505
:100AA700807D8012758007800D75807F8008758036
:0F0AB7006F8003758008D2A6C2A6AF1E120BF483
:010AC600220D
:080C3500120B91AF090208B196
:100B910075B0F0AFB0EF64F0601B7F0A120BF4AFD9
:100BA100B0EF64F0600FE5B0440FFF75B00FE5B032
:050BB10044F05FF509AE
:010BB600221C
:1008B100EF12083609457709257B090C7D08F87E7A
:1008C100093DB7091DBB0907BD08F3BE0935D709A5
:1008D10016DB0902DD08EEDE092DE70911EB08FD43
:1008E100ED08E9EE00000950751F018032751F0205
:1008F100802D751F038028751F048023751F0580B7
:100901001E751F068019751F078014751F08800F3B
:10091100751F09800AE4F51FF50A802E751F0B75F6
:100921000A008026751F0C750A00801E751F0D7543
:100931000A008016751F0E750A00800E751F0F754F
:100941000A008006751F10750A00750B018005E409
:07095100F50AF50BAF1F22B0
:060C4500120B91020B6688
:100B6600D3E509940074809480401FE51F24FE603D
:100B76000E14600F1460102403700F752001227587
:0B0B86002002227520032275200422AB
:080C3D00E4F5B0F509F51F22F2
:010C4B002286
:040AC700AB07AA06C9
:100ACB00852282758300D3E5829400E5836480944C
:030ADB0080403523
:100ADE007C007D0AAF03AE021208008C268D27AF74
:100AEE0082EF25E0240EF8A62608A6277C007D0AB4
:0B0AFE00AF03AE02120800AA06AB070F
:0E0B0900E582158270C2158380BE7E007F0ECD
:010B170022BB
:100BD900E4F523E4F5907F01120BB7E523A2E713AF
:0B0BE900F523F5907F01120BB780E8A8
:10096400020BD9E493A3F8E493A34003F68001F2C5
:1009740008DFF48029E493A3F85407240CC8C33394
:10098400C4540F4420C8834004F456800146F6DF63
:10099400E4800B0102040810204080900C1DE47ECA
:1009A400019360BCA3FF543F30E509541FFEE49358
:1009B400A360010ECF54C025E060A840B8E493A31F
:1009C400FAE493A3F8E493A3C8C582C8CAC583CA4A
:1009D400F0A3C8C582C8CAC583CADFE9DEE780BE02
:010C2A0000C9
:10080000C2D5EC30E709B2D5E4C39DFDE49CFCEE13
:1008100030E715B2D5E4C39FFFE49EFE12085CC327
:10082000E49DFDE49CFC800312085C30D507C3E422
:060830009FFFE49EFE2282
:10083600D083D082F8E4937012740193700DA3A351
:1008460093F8740193F5828883E473740293686065
:06085600EFA3A3A380DF65
:10085C00BC000BBE0029EF8DF084FFADF022E4CC80
:10086C00F875F008EF2FFFEE33FEEC33FCEE9DEC49
:10087C00984005FCEE9DFE0FD5F0E9E4CEFD22ED8F
:10088C00F8F5F0EE8420D21CFEADF075F008EF2FD9
:10089C00FFED33FD4007985006D5F0F222C398FDCA
:0508AC000FD5F0EA2267
:00000001FF
