:03000000020800F3
:0C080000787FE4F6D8FD758120020847DF
:1009FC003F065B4F666D7D077F6FFEFDFBF7EFDFFC
:030A2900010E3289
:10090300E4F508F509F50AF50BC200C2B0AF0B1206
:1009130009438F083000031209E8050AC3E50A9466
:1009230064748094804010AF0B1209438F08E5086C
:10093300D3950E5002D200E4FDAF0812088C80D488
:090A1700D2A100D2A000C2A0226D
:100964007E087D80C2A1EF5D7004C2A08002D2A087
:0E097400C2A100D2A100C2A1EF25E0FFDEE685
:010982002252
:100983007F80E4FE7D08D2A0C2A100D2A10030A0E6
:0C09930003EF4206EFC313FFDDEEAF06DA
:01099F002235
:0A09D300AC07120A177F90120964A6
:0B09DD00C2A0C2A100D2A100C2A12252
:0B0A0C00C2A1D2A000D2A100C2A12212
:090A2000D2A100C2A000D2A02264
:1009BD001209D37F401209641209DDAF04120964D4
:0609CD001209DD020A2000
:1009A000AD071FED6016E4FEEEFD3395E0FCC3EDF0
:0C09B0009478EC6480948050E70E80EC9A
:0109BC002218
:02088C00AE07B5
:10088E007B01EE75F03284FAEE75F03284E5F07588
:10089E00F00A84FFED75F00A84F50CED75F00A840C
:1008AE0085F00D900A0BE493F580D2A7C2A7EF3323
:1008BE0095E0FE74FC2FF58274093EF583E493F502
:1008CE0080D2A6C2A67F011209A0900A0AE493F56F
:1008DE0080D2A7C2A7AF02EF3395E0FE74FC2FF5CE
:1008EE008274093EF583E4934480F580D2A6C2A6B5
:0508FE007F010209A0CA
:100943001209D3EC4440FF1209641209DD120A179D
:100953007F911209641209DD120983120A0C020A3B
:010963002073
:1009E8007B1ED2B0EB75F003A4FF1209A0C2B07F42
:0409F8001E0209A032
:10080C00020903E493A3F8E493A34003F68001F2F6
:10081C0008DFF48029E493A3F85407240CC8C333ED
:10082C00C4540F4420C8834004F456800146F6DFBC
:10083C00E4800B0102040810204080900A29E47E19
:10084C00019360BCA3FF543F30E509541FFEE493B1
:10085C00A360010ECF54C025E060A840B8E493A378
:10086C00FAE493A3F8E493A3C8C582C8CAC583CAA3
:10087C00F0A3C8C582C8CAC583CADFE9DEE780BE5B
:010A2C0000C9
:00000001FF
