:03000000020ACF22
:0C0ACF00787FE4F6D8FD75813F020B161D
:100F1100012A01012701012E04020B000001080032
:090F2100013A00012C00012D0031
:0A0F6D00D2A07F90120EF7C2A0225E
:020ED5008F3C50
:100ED700E4F53DE53C2401FFE433FEC3E53D9FEE29
:0F0EE7006480F87480985007120F53053D80E423
:010EF60022D9
:0E0F530000007F057E347DC3DDFEDEFCDFFA8C
:010F6100226D
:100EF700E4FEEEC39F5012E4FDEDC3947874809432
:090F07008050030D80F30E80E917
:010F100022BE
:100BDA00EFFD7C00640170037590FEED64024C70B9
:100BEA00037590FDED64034C70037590FBED64048E
:100BFA004C70037590F7ED64054C70037590EFED3A
:100C0A0064064C70037590DFED64074C70037590B1
:100C1A00BFED64084C700375907FED4C70037590BE
:100C2A00FFED4C70037590FFED640B4C7002F5906C
:100C3A00ED64154C700375900FED64164C700375D6
:030C4A00900F22E6
:100C4D00AF0A12098CE52875F00A84F514E52875AC
:100C5D00F00A8485F0157F03120C6FAF14120CBDD2
:020C6D007F0402
:100C6F00EF14601C14601E146020146022146024A2
:100C7F0014602624FB6027240B70267580FF8024C8
:100C8F007580FE801F7580FD801A7580FB8015753D
:100C9F0080F780107580EF800B7580DF8006E4F59C
:0E0CAF0080C2A722AF2A120EF7D2A7C2A72238
:100CBD00EF2492605E246EB40A005063900CD0F85D
:100CCD00282873020CEE020CF3020CF8020CFD0244
:100CDD000D02020D07020D0C020D11020D16020D73
:100CED001B75803F8030758006802B75805B80265C
:100CFD0075804F8021758066801C75806D8017759D
:100D0D00807D8012758007800D75807F80087580CD
:0F0D1D006F8003758008D2A6C2A6AF27120EF70B
:010D2C0022A4
:0B0F6200120800AF0A12098CAF282211
:10098C00EF1209110A20770A007B09E77D09D37E53
:10099C000A18B709F8BB09E2BD09CEBE0A10D7097F
:1009AC00F1DB09DDDD09C9DE0A08E709ECEB09D842
:1009BC00ED09C4EE00000A2B75280180327528025F
:1009CC00802D7528038028752804802375280580C0
:1009DC001E75280680197528078014752808800F45
:1009EC00752809800AE4F528F50B802E75280B75FF
:1009FC000B00802675280C750B00801E75280D7554
:100A0C000B00801675280E750B00800E75280F755F
:100A1C000B008006752810750B00750C018005E421
:0D0A2C00F50BF50C750B00750C00AF2822C2
:060F8000120800020EAA97
:100EAA00D3E50A940074809480401FE52824FE60EC
:100EBA000E14600F1460102403700F752901227537
:0B0ECA00290222752903227529042249
:090F770075B0F0E4F50AF528223A
:010F8C002242
:040DE900AB07AA06A4
:100DED00852E82758300D3E5829400E5836480941B
:030DFD00804035FE
:100E00007C007D0AAF03AE021208DB8C3E8D3FAF43
:100E100082EF25E02416F8A63E08A63F7C007D0A56
:0B0E2000AF03AE021208DBAA06AB070E
:0E0E2B00E582158270C2158380BE7E007F16A0
:010E39002296
:100E7B00E50864017007F528120E3A80FBE508704F
:100E8B001D120800120F2B120D90E53A640370032C
:0F0E9B00120A39E53A640470E8120F3F80E3222F
:100E3A0075B0F0AFB0EF64F0602F7F0A120EF7AF13
:100E4A00B0EF64F0602375B0F0AFB0EF64F0600FFC
:100E5A00E5B0440FFF75B00FE5B044F05FF50A1234
:100E6A000C4DAF15120CBD80D6120C4DAF15020CED
:010E7A00BDBA
:100D9000E53A640170057F01120BDAE53A640270EE
:100DA000057F02120BDAE53A640370057F03120B2C
:100DB000DAE53A640470057F04120BDAE52F64016A
:100DC00070057F05120BDAE52F640270057F0612AD
:100DD0000BDAE52F640370057F07120BDAE52F6449
:090DE0000470057F08120BDA22F1
:060F8600120F77020F625A
:100F2B007F01120C6FAF2C120CBD7F06120C6FAF32
:040F3B002D020CBDBA
:1008000075B0F0AFB0EF64F070030208C87F0A1251
:100810000EF7AFB0EF64F070030208AD75B0F0AF43
:10082000B0EF64F0600FE5B0440FFF75B00FE5B0B6
:1008300044F05FF50A120F2BAF0A12098CAF3A7E13
:1008400000EF700385282CEF64014E7043E52824E7
:10085000F360231460251460271460292404702A8F
:10086000AF087E00EF64017004F5088023EF4E703E
:100870001F750801801A752F018015752F028010D1
:10088000752F03800B752F048006E4F52FF53A22AF
:10089000E53A64026003020812D3E52894097480E3
:1008A0009480400375280985282D020812053AD343
:1008B000E53A940474809480400BE4F53AF52CF505
:0808C0002DF50DF52F120F7745
:0108C800220D
:100A3900AF2C120B5B8E328F33AF2D120B5B8E34C2
:100A49008F35E52F24FE601814602414602E2403CA
:100A5900703BE5332535F537E5323534F5368032E7
:100A6900C3E5339535F537E5329534F5368023AC52
:100A790034AD35AE32AF331208C9800BAC34AD3565
:100A8900AE32AF331208DB8E368F378005E4F53688
:100A9900F537AE36AF377C007D0A1208DB8E108F32
:100AA90011AE36AF377C007D0A1208DB8C128D132C
:100AB900AF11AE10120D2D8F14AF13AE12120D2DF2
:060AC9008F15753A0422AE
:100F3F00E53A6404700D120800120C63AF15120C21
:040F4F00BD80ED2252
:100B5B00EFB40A00506F900B68F8282873020B86CD
:100B6B00020B88020B90020B98020BA0020BA8023F
:100B7B000BB0020BB8020BC0020BC88048753800D3
:100B8B007539018045753800753902803D7538001F
:100B9B007539038035753800753904802D7538002B
:100BAB007539058025753800753906801D75380037
:100BBB007539078015753800753908800D75380043
:0F0BCB007539098005E4F538F539AE38AF3922B0
:100D2D00EE705AEFB40A005054900D3DF828287318
:100D3D00020D5B020D5D020D62020D67020D6C026C
:100D4D000D71020D76020D7B020D80020D85802D39
:100D5D00752601802B752602802675260380217548
:100D6D002604801C752605801775260680127526AB
:100D7D0007800D75260880087526098003E4F52681
:030D8D00AF26226C
:100ADB00020E7BE493A3F8E493A34003F68001F2A8
:100AEB0008DFF48029E493A3F85407240CC8C3331C
:100AFB00C4540F4420C8834004F456800146F6DFEB
:100B0B00E4800B0102040810204080900F11E47E5A
:100B1B00019360BCA3FF543F30E509541FFEE493DF
:100B2B00A360010ECF54C025E060A840B8E493A3A6
:100B3B00FAE493A3F8E493A3C8C582C8CAC583CAD1
:100B4B00F0A3C8C582C8CAC583CADFE9DEE780BE89
:010F2A0000C6
:1008C900EF8DF0A4A8F0CF8CF0A428CE8DF0A42E43
:0208D900FE22FD
:1008DB00C2D5EC30E709B2D5E4C39DFDE49CFCEE38
:1008EB0030E715B2D5E4C39FFFE49EFE120937C370
:1008FB00E49DFDE49CFC800312093730D507C3E46B
:06090B009FFFE49EFE22A6
:10091100D083D082F8E4937012740193700DA3A375
:1009210093F8740193F5828883E473740293686089
:06093100EFA3A3A380DF89
:10093700BC000BBE0029EF8DF084FFADF022E4CCA4
:10094700F875F008EF2FFFEE33FEEC33FCEE9DEC6D
:10095700984005FCEE9DFE0FD5F0E9E4CEFD22EDB3
:10096700F8F5F0EE8420D21CFEADF075F008EF2FFD
:10097700FFED33FD4007985006D5F0F222C398FDEE
:050987000FD5F0EA228B
:00000001FF
