:0300000002095A98
:0C095A00787FE4F6D8FD7581260209A123
:0D0C4000012101011E01012204020A000031
:0A0C4E00D2A07F90120C17C2A02262
:020BF5008F234C
:100BF700E4F524E5232401FFE433FEC3E5249FEE57
:0F0C07006480F87480985007120C31052480E443
:010C160022BB
:0E0C310000007F057E347DC3DDFEDEFCDFFAB1
:010C3F002292
:100C1700E4FEEEC39F5012E4FDEDC3947874809414
:090C27008050030D80F30E80E9FA
:010C300022A1
:1009E600EFFD7C00640170037590FEED64024C70AF
:1009F600037590FDED64034C70037590FBED640484
:100A06004C70037590F7ED64054C70037590EFED2F
:100A160064064C70037590DFED64074C70037590A7
:100A2600BFED64084C700375907FED4C70037590B4
:100A3600FFED4C70037590FFED640B4C7002F59062
:100A4600ED64154C700375900FED64164C700375CC
:030A5600900F22DC
:100B1A00EF14601C14601E146020146022146024F8
:100B2A0014602624FB6027240B70267580FF80241E
:100B3A007580FE801F7580FD801A7580FB80157593
:100B4A0080F780107580EF800B7580DF8006E4F5F2
:0E0B5A0080C2A722AF21120C17D2A7C2A72279
:100A5900EF2492605E246EB40A005063900A6CF829
:100A6900282873020A8A020A8F020A94020A990242
:100A79000A9E020AA3020AA8020AAD020AB2020ADF
:100A8900B775803F8030758006802B75805B802626
:100A990075804F8021758066801C75806D80177503
:100AA900807D8012758007800D75807F8008758034
:0F0AB9006F8003758008D2A6C2A6AF1E120C175D
:010AC800220B
:080C5800120BCFAF090208B135
:100BCF0075B0F0AFB0EF64F0601B7F0A120C17AF77
:100BDF00B0EF64F0600FE5B0440FFF75B00FE5B0F4
:050BEF0044F05FF50970
:010BF40022DE
:1008B100EF12083609457709257B090C7D08F87E7A
:1008C100093DB7091DBB0907BD08F3BE0935D709A5
:1008D10016DB0902DD08EEDE092DE70911EB08FD43
:1008E100ED08E9EE00000950751F018032751F0205
:1008F100802D751F038028751F048023751F0580B7
:100901001E751F068019751F078014751F08800F3B
:10091100751F09800AE4F51FF50A802E751F0B75F6
:100921000A008026751F0C750A00801E751F0D7543
:100931000A008016751F0E750A00800E751F0F754F
:100941000A008006751F10750A00750B018007E407
:09095100F51FF50AF50BAF1F229A
:060C6800120BCF020BA4E9
:100BA400D3E509940074809480401FE51F24FE60FF
:100BB4000E14600F1460102403700F752001227549
:0B0BC40020022275200322752004226D
:080C6000E4F5B0F509F51F22CF
:010C6E002263
:040AC900AB07AA06C7
:100ACD00852282758300D3E5829400E5836480944A
:030ADD0080403521
:100AE0007C007D0AAF03AE021208008C258D26AF74
:100AF00082EF25E0240EF8A62508A6267C007D0AB4
:0B0B0000AF03AE02120800AA06AB070C
:0E0B0B00E582158270C2158380BE7E007F0ECB
:010B190022B9
:100B6800E4F5907F01120B1AE4FF120A59E4F51F0D
:100B7800120C58E51F640170087F01120A5975901C
:100B880001E51F640270087F02120A59E4F590E536
:0C0B98001F70DAFF120A59E4F59080D1BA
:10096600020B68E493A3F8E493A34003F68001F234
:1009760008DFF48029E493A3F85407240CC8C33392
:10098600C4540F4420C8834004F456800146F6DF61
:10099600E4800B0102040810204080900C40E47EA5
:1009A600019360BCA3FF543F30E509541FFEE49356
:1009B600A360010ECF54C025E060A840B8E493A31D
:1009C600FAE493A3F8E493A3C8C582C8CAC583CA48
:1009D600F0A3C8C582C8CAC583CADFE9DEE780BE00
:010C4D0000A6
:10080000C2D5EC30E709B2D5E4C39DFDE49CFCEE13
:1008100030E715B2D5E4C39FFFE49EFE12085CC327
:10082000E49DFDE49CFC800312085C30D507C3E422
:060830009FFFE49EFE2282
:10083600D083D082F8E4937012740193700DA3A351
:1008460093F8740193F5828883E473740293686065
:06085600EFA3A3A380DF65
:10085C00BC000BBE0029EF8DF084FFADF022E4CC80
:10086C00F875F008EF2FFFEE33FEEC33FCEE9DEC49
:10087C00984005FCEE9DFE0FD5F0E9E4CEFD22ED8F
:10088C00F8F5F0EE8420D21CFEADF075F008EF2FD9
:10089C00FFED33FD4007985006D5F0F222C398FDCA
:0508AC000FD5F0EA2267
:00000001FF
