:03000000020FBA32
:0C0FBA00787FE4F6D8FD75815302100129
:10114900013B010137010124006040000001010158
:101159000101010101000000000001000000000080
:10116900000001010001010101010101010000006C
:101179000000010100000000000001000000000063
:1011890000000000000101010101010101012B0022
:10119900012C00012902012501014B00014C00012C
:1011A9004D0F012F000130000150010128010127D5
:0D11B90001013908014A0C013E0301263BEB
:0A169F00D2A07F901215FDC2A02218
:02157D008F1AC3
:10157F00E4F51BE51A2401FFE433FEC3E51B9FEEE0
:0F158F006480F87480985007121685051B80E45D
:01159E00222A
:0E16850000007F057E347DC3DDFEDEFCDFFA53
:011693002234
:1015FD00E4FEEEC39F5012E4FDEDC3947874809425
:0B160D008050030D80F30E80E97F0188
:0116180022AF
:10124100EFFD7C00640170037590FEED64024C704B
:10125100037590FDED64034C70037590FBED640420
:101261004C70037590F7ED64054C70037590EFEDCC
:1012710064064C70037590DFED64074C7003759044
:10128100BFED64084C700375907FED4C7003759051
:10129100FFED4C70037590FFED640B4C7002F590FF
:1012A100ED64154C700375900FED64164C70037569
:0312B100900F2279
:08000300121557AF23020F276D
:1015570075B0F0AFB0EF64F0601B7F0A1215FDAFF6
:10156700B0EF64F0600FE5B0440FFF75B00FE5B062
:0515770044F05FF523C4
:01157C00224C
:100F2700EF1204C00FAA770F967B0F827D0F6E7E9C
:100F37000FA5B70F91BB0F7DBD0F69BE0FA0D70FD0
:100F47008CDB0F78DD0F64DE0F9BE70F87EB0F73EA
:100F5700ED0F5FEE00000FB275380180497538025A
:100F67008044753803803F753804803A75380580AA
:100F7700357538068030753807802B753808802618
:100F87007538098021E4F538801C75380B80177592
:100F9700380C801275380D800D75380E800875383D
:100FA7000F80037538107524018005E4F538F524A2
:030FB700AF38222E
:0816A900E4F5B0F523F5382249
:10104600E4F533F535C3E535940874809480507320
:10105600E4F533753F07C374809480405BAC3FE48E
:1010660012011E8F0F8E0E8D0D8C0C7F007E007D63
:10107600007C40120954C004C005C006C007E53F05
:1010860075F008A42400F582E43400F583E5822592
:1010960035F582E43583F583E0FCE412011ED003C6
:1010A600D002D001D00012000E1201528F4FE54F30
:1010B6002533F533153F809E74402535F8A6330554
:0410C60035808222CD
:1014FB00753F07C3748094804029E53F75F008A4BD
:10150B002400F582E43400F583E5822FF582E4357F
:10151B0083F583E0FEC37407953F2440F8A60615B8
:04152B003F80D0220B
:10135F00EFFD7C007002F580ED64014C7003758029
:10136F0080ED64024C7003758040ED64034C700394
:10137F00758020ED64044C7003758010ED64054C8E
:10138F007003758008ED64064C7003758004ED647E
:10139F00074C7003758002ED64084C700375800173
:0113AF00221B
:10130D00EFFD7C006408700375A0FFED4C70037554
:10131D00A0FEED64014C700375A0FDED64024C70F0
:10132D000375A0FBED64034C700375A0F7ED640429
:10133D004C700375A0EFED64054C700375A0DFEDE7
:10134D0064064C700375A0BFED64074C700375A067
:02135D007F22ED
:100E9300E4F535C3E5359408748094804003020F6C
:100EA30026E4F53FC3E53F9408748094805027E51A
:100EB3003F75F008A42400F582E43400F583E5824D
:100EC3002535F582E43583F583E0FF7440253FF84B
:100ED300A607053F80CEE4F580AF3512130DE5403C
:100EE30064017002D280E54164017002D281E5425F
:100EF30064017002D282E54364017002D283E54447
:100F030064017002D284E54564017002D285E5462E
:100F130064017002D286E54764017002D287053509
:040F2300020E962202
:1012B400AF2BEF3395E0FED3EF9404EE648094807B
:1012C4005012AF2CEF3395E0FED3EF9404EE64801C
:1012D40094804005E4F52BF52CE4FED3E52B6480E3
:1012E400F8EE6480985008AF061212410E80EC7E2E
:1012F40008C37409952CC36480F8EE648098400890
:08130400AF061212411E80E940
:01130C0022BE
:10164B00754A0C753908755001753E0375263B7547
:08165B004D11E4F530F52F22DA
:03161900120E931B
:10161C0020B402800D20B502800820B60280032081
:06162C00B70312164B2269
:10152F001213B07C007D0312045C8D3DE53D146009
:10153F000C14600E2402700DE4F52E8008752E0138
:08154F008003752E02AF2E226D
:100D4500AF4A7E00D3EF9408748094805003020D5F
:100D5500F8EF9439748094804003020DF8E54A5405
:100D650007F54BFF3395E04F7003754B08154B1591
:100D75004BE52924FE6024047079E54B2439F526DA
:100D8500FF7E00D394407480948040028053C3EF6B
:100D95009437EE64809480505A805512152FEF25B4
:100DA5004BF54BE52624C8FFE434FFFEAD4BED3390
:100DB50095E0FCC3ED9FEE6480F8EC6480985004E8
:100DC5001526800FD3ED9FEE6480F8EC6480984083
:100DD500020526AF267E00D3EF94407480948040B0
:100DE5000475264022C3EF9437EE64809480500347
:040DF5007526372206
:10053B00854A53AF4AEF64106019EF64186014EFEB
:10054B006420600FEF6428600AEF64306005EF648D
:10055B00387013AF507E00EF64017003020639EF61
:10056B004E7036020642AF4AEF64096019EF641110
:10057B006014EF6419600FEF6421600AEF64296067
:10058B0005EF64317013AF507E00EF64017003020E
:10059B000670EF4E7003020679E539254AF54AB528
:1005AB003E0302068CAF3E7E00EF2401FDEE33FCD2
:1005BB00AB4A7A00EDB50307EAB504030206A7EFD1
:1005CB002402FFE43EFEEFB50307EEB5020302067D
:1005DB00BAE54AB526030206C3AF267E00EF240117
:1005EB00FDEE33FCAB4A7A00EDB50307EAB5040325
:1005FB000206DEEF2402FFE43EFEEFB50307EEB585
:10060B0002030206F1AF4AEF64106019EF64186041
:10061B0014EF6420600FEF6428600AEF643060050C
:10062B00EF64387017AF507E00EF640170057539B9
:10063B0007803EEF4E70417539F78035AF4AEF6456
:10064B00096019EF64116014EF6419600FEF6421F6
:10065B00600AEF64296005EF6431701CAF507E00B7
:10066B00EF640170057539098007EF4E700A753913
:10067B00F9E539254AF54A22E539254AF54AB53EC9
:10068B00047539F722AF3E7E00EF2401FDEE33FCFB
:10069B00AB4A7A00EDB50308EAB504047539F822C4
:1006AB00EF2402FFE43EFEEFB50308EEB50204753E
:1006BB0039F922E54AB5260475390722AF267E00A3
:1006CB00EF2401FDEE33FCAB4A7A00EDB50308EAEB
:1006DB00B5040475390822EF2402FFE43EFEEFB5A2
:0A06EB000307EEB50203753909227A
:10166300754D0D753C01753214E4F531F551755224
:02167300022251
:100C880020B422153EAF3E7E00D3EF9400748094CA
:100C98008050028023C3EF9408EE64809480500350
:100CA800020D2D802320B525053EAF3E7E00D3EFF3
:100CB8009400748094805005E4F53E8068C3EF94F6
:100CC80008EE64809480405D753E08805820B62701
:100CD800AF25EF3395E04F704C1526AF26FED3EFC6
:100CE80094377480948050028028C3EF9440EE6457
:100CF8008094804030802B20B72BAF25EF3395E0D0
:100D08004F70220526AF26FED3EF94377480948067
:100D18005005752637800EC3EF9440EE64809480AA
:100D2800400375264030B40930B50630B60320B705
:0D0D38000B12148C121694120E9380E922F7
:10159F00D3E54A940874809480500575300A800E04
:1015AF00C3E54A9440748094804006753014120845
:0215BF002A22DE
:1015C100121675E5307014120C8812148C121694D0
:0E15D100120E931212B412163280E802082A8B
:1013FD00751C03E53E600F24F9601414601A24096E
:10140D00701B7F0180147F01120A6B7F02800B7F9E
:10141D0007120A6B7F0880027F08020A6BE4F54E03
:10142D00C3E54E940374809480500CE53E254EFF29
:07143D00120A6B054E80E965
:011444002285
:10144500E52624C8600F24F9601414601A24097075
:101455001B7F3980147F39120A6B7F3A800B7F3FDF
:10146500120A6B7F4080027F40020A6BE4F54EC38F
:10147500E54E940374809480500CE526254EFF12AA
:071485000A6B054E80E9220D
:0B1694001213FDAF4A120A6B0214454E
:1011C700854A53120B7AE54A653E6025AF3E7E009D
:1011D700EF2401FDEE33FCAB4A7A00ED6B7001ECB6
:1011E700600FEF2402FFEE33FEEFB50312EAB506F8
:1011F7000E85534AE539F404F5397550018036E513
:101207004A65266022AF267E00EF2401FDEE33FCFF
:10121700ED6B7002EC6A600FEF2402FFEE33FEEF16
:10122700B50316EEB5021285534AE539F404F539CC
:0A123700E4F550E539254AF54A2296
:100B7A00AF4AEF64106019EF64186014EF642060E4
:100B8A000FEF6428600AEF64306005EF643870176D
:100B9A00AF507E00EF64017005753907803EEF4E55
:100BAA0070417539F78035AF4AEF64096019EF640F
:100BBA00116014EF6419600FEF6421600AEF642971
:100BCA006005EF6431701CAF507E00EF6401700560
:100BDA007539098007EF4E700A7539F9E539254AE2
:100BEA00F54A22E539254AF54AB53E057539F780B1
:100BFA007EAF3E7E00EF2401FDEE33FCAB4A7A0065
:100C0A00EDB50309EAB504057539F88062EF2402E7
:100C1A00FFE43EFEEFB50309EEB502057539F9802A
:100C2A004EE54AB5260D753907E527652870400552
:100C3A004D803CAF267E00EF2401FDEE33FCAB4A2B
:100C4A007A00EDB50310EAB5040C753908E527B545
:100C5A00281D054D8019EF2402FFE43EFEEFB5037F
:100C6A000EEEB5020A753909E527B52802054DC306
:0E0C7A00E54D9414748094804003754D14224F
:1015DF008F39D3EF9400748094805003753901D301
:0E15EF00E5399409748094804003753909220F
:10163200AF39D3EF940074809480500CEF94087407
:09164200809480400375300222FF
:10148C00E4FFEFC3940874809480502CE4FEEEC308
:10149C00940874809480501DEF75F008A42400F516
:1014AC0082E43400F583E5822EF582E43583F583FE
:0814BC00E4F00E80D90F80CA94
:0114C4002205
:10082A00E53024EC605B240A60030208BD12148CD4
:10083A00754E03D3E54E943B74809480500DAF4EB1
:10084A00120A6B7408254EF54E80E8754E04D3E5FE
:10085A004E9408748094805009AF4E120A6B054E6C
:10086A0080EC7F0B121241052C752F01AF2FEF334D
:10087A0095E0FEEF64014E600302095312161980D7
:10088A00EB052B752F01AF2FEF3395E0FEEF6401D7
:10089A004E600302095312148C754E01D3E54E942F
:1008AA00407480948050DFAF4E120A6B12161905FD
:1008BA004E80E912148C7F24120A6B7F23120A6B72
:1008CA007F22120A6B7F1C120A6B7F1A120A6B7F35
:1008DA0014120A6B7F13120A6B7F12120A6B7F0AB9
:1008EA00120A6B7F04120A6B7F03120A6B7F0212D1
:1008FA000A6B7F20120A6B7F1F120A6B7F1E120A75
:10090A006B7F16120A6B7F0E120A6B7F06120A6B36
:10091A00754E38E5302438FFE433FEC3E54E9FEECA
:10092A006480F87480985009AF4E120A6B054E80A5
:10093A00E2752F01AF2FEF3395E0FEEF64014E70A1
:0A094A0008120E9312161C80EB2217
:100A6B00EFFD7C00C39401748094805002800BD303
:100A7B00ED9440EC64809480400475300422D3EDF7
:100A8B009400EC64809480400ED3ED9408EC648069
:100A9B0094805003752D01D3ED9408EC6480948001
:100AAB00400ED3ED9410EC648094805003752D02AE
:100ABB00D3ED9410EC64809480400ED3ED9418EC3D
:100ACB00648094805003752D03D3ED9418EC6480EF
:100ADB009480400ED3ED9420EC6480948050037589
:100AEB002D04D3ED9420EC64809480400ED3ED94D0
:100AFB0028EC648094805003752D05D3ED9428EC7D
:100B0B0064809480400ED3ED9430EC6480948050DC
:100B1B0003752D06D3ED9430EC64809480400ED396
:100B2B00ED9438EC648094805003752D07D3ED94CD
:100B3B0038EC64809480400ED3ED9440EC64809448
:100B4B00805003752D08E52D1475F008A4FEC3EF36
:100B5B009EF53475F008A424F7F582E434FFF58391
:0F0B6B00E582252DF582E43583F5837401F022B0
:1014C500AF52EF3395E0FEAD51ED3395E0FCC3ED42
:1014D5009FFBEC9EFAE531FD3395E0FCAF03AE02D0
:1014E50012045C8F8CE531FD3395E0FCAF03AE0251
:0614F50012045C8D8A2246
:101675001216637589011214C5D28CD2AFD2A92274
:03000B000210CA16
:1010CA00C0E0C0F0C083C082C0D075D000C000C0EC
:1010DA0001C002C003C004C005C006C0071214C57F
:1010EA00054CC3E54C94FE748094804003754C0013
:1010FA00C37415954D654C702B6327FFE52765284A
:10110A006009E527652860037590FFAF25EF3395E1
:10111A00E0FEEF64014E7003120D451211C712155D
:10112A009F754C00D007D006D005D004D003D0025A
:0F113A00D001D000D0D0D082D083D0F0D0E0321E
:10000E00EC4D6011E8497017ED33EC3304600DE4EC
:10001E00FCFFFEFD22E933E8330470F80201BE1244
:10002E00018958046009E4CC248150062850090245
:10003E0001C82840030201C5C0E0EB4A7044B980F4
:10004E0006D0E0FB0201B4EF4E701CBD8008EBFF42
:10005E00EAFEE9FD80EBE98DF0A4FEE5F00200F783
:10006E00E9CDF9EAFEEBFFEF89F0A4FCE5F0CE89CD
:10007E00F0A42EFFE435F0CD89F0A42DFEE435F08A
:10008E008067EF4E7005BD80D780C3EF8BF0A4ACB8
:10009E00F0EE8BF0A42CFCE435F0F8EF8AF0A42CF3
:1000AE00E5F038FCE433CB8DF0A42CFCE5F03BF806
:1000BE00EE8AF0A42CFCE5F038F8E433CF89F0A4F6
:1000CE002CFCE5F038CF3400CE89F0A42FFFE5F0FC
:1000DE003EFEE433C98DF0A42EFEE5F039CD8AF054
:1000EE00A42FFFE5F03EFEE43DFD33D0E0FB5007CC
:1000FE000BBB000F0201C8EC2CFCEF33FFEE33FEFE
:06010E00ED33FD0201A02B
:1001140075F020800E75F010800575F0087D007E66
:10012400007F003392D530D503120492EC33401093
:10013400EF33FFEE33FEED33FDEC33FCD5F0ED226F
:0E014400E5F0247EA2D513CC92E7CDCEFF22AB
:10015200EDD2E7CD33EC3392D524814006E4FFFEA5
:10016200FDFC22FCE4CFCECDCC24E0501174FF8004
:10017200EDC3CC13CCCD13CDCE13CECF13CF0470A1
:07018200F030D5DE0204920B
:100954008F0B8E0A8D098C08E4FFFE7D807C3FABF3
:100964000BAA0AA909A8081202E57009AF0BAE0A7E
:10097400AD09AC0822AF0BAE0AAD09AC081201D325
:10098400FBAF0FAE0EAD0DAC0C1201D3FFBF0108CF
:10099400E4FFFE7D807C3F22EF64046022EB64046C
:1009A400601DBB0127E4FFFEFDFCAB0FAA0EA90DE1
:1009B400A80C1202E560084006E4FFFEFDFC227468
:1009C400FFF50FF50EF50DF50C020A62E4F510F5CE
:1009D40011FFFEFDFCAB0BAA0AA909A8081202E547
:1009E400504BAF0FAE0EAD0DAC0C1201528E108FEA
:1009F40011AC10AD11EC120119C8ECC8C9EDC9CA8B
:100A0400EECACBEFCBAF0FAE0EAD0DAC0C1201F0B6
:100A1400E4FBFAF9F81202E570A5AF0BAE0AAD09D2
:100A2400AC0812035E8F0B8E0A8D098C08AF0BAED7
:100A34000AAD09AC08120729AB0FAA0EA90DA80C20
:100A440012000E120E318F0F8E0E8D0D8C0CE511CF
:100A540030E00B12035E8F0F8E0E8D0D8C0CAF0FDA
:070A6400AE0EAD0DAC0C223B
:10018900E9D2E7C933E833F892D5EDD2E7CD33ECBC
:0701990033FC5002B2D52235
:1001A000EC30E7100FBF000C0EBE00080DBD0004C0
:1001B0000BEB6014A2D5EB13FCED92E7FD2274FF6C
:1001C000FCFDFEFF22E480F8A2D574FF13FC7D80C5
:0301D000E480EFD9
:1001D300ED33EC33601004700FED547F700574023F
:0A01E30092E0227404220422E422B8
:1001ED000201BEE86480F8E933E83360110460F081
:1001FD00ED33EC337009E8FCE9FDEAFEEBFF220478
:10020D0060DED3EB9FEA9EE99DE8C2E78CF0C2F772
:10021D0095F0400CE8CCF8E9CDF9EACEFAEBCFFB3E
:10022D0012018985D0F05804700320D5B3E804700D
:10023D00075002B2D50201C892D5EC0460F7E4CCA8
:10024D00C0E0C398F8603B94186008400DD0E0FB07
:10025D000201A0E4FBFAC9FC8028E830E406E4C9F9
:10026D00FBE4CAFCE830E305E4C9CACBFCE854075B
:10027D006010F8C3E913F9EA13FAEB13FBEC13FC66
:10028D00D8F130F52FC3E49CFCEF9BFFEE9AFEED09
:10029D0099FDD0E0FBEF4E4D4C701222DB030201B5
:1002AD00C5EC2CFCEF33FFEE33FEED33FDED30E707
:1002BD00EB0201A0EF2BFFEE3AFEED39FDD0E0FB96
:1002CD0050130BBB00030201C8ED13FDEE13FEEF3F
:0802DD0013FFEC13FC0201A069
:1002E50074F8CC6480CCC86480C8F58204604FC3C0
:1002F500EB9FF5F0EA9E42F0E99D42F0E89C45F05F
:10030500603C501DE5825FFFE582D313CB5BCBF4E8
:100315002B5582FB50280ABA002409B90020088011
:100325001DE5825BFBE582D313CF5FCFF4C3132FAB
:100335005582FF50090EBE00050DBD00010CC3EB33
:100345009FF5F0EA9E42F0E99D42F0E89C45F06099
:0903550007CC4820E701B3EC22BB
:10035E00ED33EC33600A047003BD8004ECB2E7FCAD
:01036E00226C
:100DF90033DA929E35B16011377FE5FE3921848956
:100E09003AAEC3FF3C1D955B3D6358473E75FDF007
:100E19003F3172183F800000C2D50201C80201BEED
:100E2900BD80FA50F30201C5ED33EC330460F17B68
:100E39003B7AAA79B8783F12000EED33EC3392D59C
:100E4900247B5011A2D570DB500BED448024045053
:100E590004A2D580CEEFFBEEFAEDF9ECF8120152BF
:100E6900EFF582F404FC12011E1201F4C082900D08
:100E7900F9740912041EED33CC33D0F092D525F064
:0A0E8900A2D57001C313CC13FD22A3
:1006F5003E9248DA3ECCCCCD3F2AAAAB4000000062
:100705003F8000003F9837F03FB504F33FD744FCE6
:100715003E3172173EB172173F0515913EDE5BD92A
:10072500D2008002C200EDD2E7F8CD33EC3304707D
:100735000BBD800592D50201C80201BE40FBD31452
:1007450060F2F5F07C3FEE7A00C39496C8948B4036
:10075500230AC89469C8941A401A0AC89468C894A8
:100765001F40110AC8945AC89425400805F07A001C
:10077500CDC2E7CDC0F08C128D138E148F15EA23F0
:1007850023C0E02405F582E43407F5831204B01292
:1007950001F4ECC0E0EDC0E0EEC0E0EFC0E0120413
:1007A500A0A812A913AA14AB151201F0D0E0FBD032
:1007B500E0FAD0E0F9D0E0B2E7F81203728C128DBE
:1007C500138E148F159006F5740312040FA812A941
:1007D50013AA14AB1512000ED0E0600F2411F58298
:1007E500E43407F5831204B01201F48C128D138ED4
:1007F500148F15D0E0C3947FFDE49400FC12011919
:100805007B187A727931783F12000EA812A913AAC3
:1008150014AB151201F430000B7BD97A5B79DE78C5
:050825003E12000E224E
:10036F000201C8EC5D046005E8590470030201BE88
:10037F00120189580460F6EC4860F2EC7004FDFE3F
:10038F00FF22C860DB2481C85009C3986002500661
:10039F000201C59850CAF582E9294B4A7005AB8214
:1003AF000201B475F0007C1A7880C3EF9BEE9AEDD2
:1003BF0099400DC3EF9BFFEE9AFEED99FDE842F0D9
:1003CF00DC23ACF0D0E0FFD0E0FED0E0FDAB82202C
:1003DF00E7101BEB60BAEC2CFCEF33FFEE33FEEDB6
:1003EF0033FD0201A0E803F830E705C0F075F00017
:1003FF00EF2FFFEE33FEED33FD40B830E7C280AA9A
:10040F00C0E0EFFBEEFAEDF9ECF812000ED0E0F5DC
:10041F00F0EFFBEEFAEDF9ECF81204A0A3A3A3A3FF
:10042F00E8C0E0E9C0E0EAC0E0EBC0E0C0F01200D5
:10043F000E1204B0A3A3A3A31201F4D0F0D0E0FBDB
:0D044F00D0E0FAD0E0F9D0E0F8D5F0D422EA
:100FC6000215C1E493A3F8E493A34003F68001F26B
:100FD60008DFF48029E493A3F85407240CC8C3332C
:100FE600C4540F4420C8834004F456800146F6DFFB
:100FF600E4800B0102040810204080901149E47E31
:10100600019360BCA3FF543F30E509541FFEE493EF
:10101600A360010ECF54C025E060A840B8E493A3B6
:10102600FAE493A3F8E493A3C8C582C8CAC583CAE1
:10103600F0A3C8C582C8CAC583CADFE9DEE780BE99
:0111C6000028
:10045C00C2D5EC30E709B2D5E4C39DFDE49CFCEEBB
:10046C0030E715B2D5E4C39FFFE49EFE1204E6C349
:10047C00E49DFDE49CFC80031204E630D507C3E444
:06048C009FFFE49EFE222A
:0E049200C3E49FFFE49EFEE49DFDE49CFC227B
:1004A000E493FC740193FD740293FE740393FF22A2
:1004B000E493F8740193F9740293FA740393FB22A2
:1004C000D083D082F8E4937012740193700DA3A3CB
:1004D00093F8740193F5828883E4737402936860DF
:0604E000EFA3A3A380DFDF
:1013B000AC16AD17AE18AF197810EC4D4E4F700447
:1013C0007CA57DA5C3EC13FCED13FDEE13FEEF131E
:1013D000FF5010EC64CCFCED644CFDEE644EFEEF6F
:1013E00064CEFFD8DF8C168D178E188F19EE547FC0
:0D13F000FE228E168F1774A5F518F5192230
:1004E600BC000BBE0029EF8DF084FFADF022E4CCFA
:1004F600F875F008EF2FFFEE33FEEC33FCEE9DECC3
:10050600984005FCEE9DFE0FD5F0E9E4CEFD22ED08
:10051600F8F5F0EE8420D21CFEADF075F008EF2F52
:10052600FFED33FD4007985006D5F0F222C398FD43
:050536000FD5F0EA22E0
:00000001FF
