:03000000020F628A
:0C0F6200787FE4F6D8FD758124020FA909
:1010CB00A040000000000000010000000000000133
:1010DB000101000000000000010000000000000002
:1010EB0001000000000000000100000000000000F3
:1010FB0001000000000101010100000000000000E0
:03110B00000000E1
:100FEE00E4F508F50AAF0AEF3395E0FEC3EF940877
:100FFE00EE648094805071E4F509AF09EF3395E00B
:10100E00FEC3EF9408EE648094805050C374079F23
:10101E00FDE49EFC12090B8F1C8E1B8D1A8C197F02
:10102E00007E007D007C40120DB1C004C005C006DC
:10103E00C007E50A75F008A424002509F8E2FC12A1
:10104E000910D003D002D001D000120800120944BA
:10105E008F0CE50C2508F5080509809E740D250AF0
:09106E00F8A608050A020FF3229E
:10107700EFFD3395E0FC4D7002F580ED64014C7097
:1010870003758080ED64024C7003758040ED640346
:101097004C7003758020ED64044C7003758010ED6F
:1010A70064054C7003758008ED64064C7003758009
:1010B70004ED64074C7003758002ED64084C7003FF
:0410C700758001220D
:10110F00E4F50AAF0AEF3395E0FEC3EF9408EE64FF
:10111F00809480500A12107775A0FF050A80E42290
:01112F00229D
:10080000EC4D6011E8497017ED33EC3304600DE4F2
:10081000FCFFFEFD22E933E8330470F80209B01250
:10082000097B58046009E4CC248150062850090251
:1008300009BA2840030209B7C0E0EB4A7044B98006
:1008400006D0E0FB0209A6EF4E701CBD8008EBFF4E
:10085000EAFEE9FD80EBE98DF0A4FEE5F00208E98F
:10086000E9CDF9EAFEEBFFEF89F0A4FCE5F0CE89D3
:10087000F0A42EFFE435F0CD89F0A42DFEE435F090
:100880008067EF4E7005BD80D780C3EF8BF0A4ACBE
:10089000F0EE8BF0A42CFCE435F0F8EF8AF0A42CF9
:1008A000E5F038FCE433CB8DF0A42CFCE5F03BF80C
:1008B000EE8AF0A42CFCE5F038F8E433CF89F0A4FC
:1008C0002CFCE5F038CF3400CE89F0A42FFFE5F002
:1008D0003EFEE433C98DF0A42EFEE5F039CD8AF05A
:1008E000A42FFFE5F03EFEE43DFD33D0E0FB5007D2
:1008F0000BBB000F0209BAEC2CFCEF33FFEE33FE0A
:06090000ED33FD02099237
:1009060075F020800E75F010800575F0087D007E6C
:10091600007F003392D530D503120C4EEC334010D5
:10092600EF33FFEE33FEED33FDEC33FCD5F0ED2275
:0E093600E5F0247EA2D513CC92E7CDCEFF22B1
:10094400EDD2E7CD33EC3392D524814006E4FFFEAB
:10095400FDFC22FCE4CFCECDCC24E0501174FF800A
:10096400EDC3CC13CCCD13CDCE13CECF13CF0470A7
:07097400F030D5DE020C4E4D
:100DB1008F188E178D168C15E4FFFE7D807C3FAB5E
:100DC10018AA17A916A815120AD77009AF18AE17D5
:100DD100AD16AC1522AF18AE17AD16AC151209C57C
:100DE100FBAF1CAE1BAD1AAC191209C5FFBF010840
:100DF100E4FFFE7D807C3F22EF64046022EB64040B
:100E0100601DBB0127E4FFFEFDFCAB1CAA1BA91A58
:100E1100A819120AD760084006E4FFFEFDFC2274FF
:100E2100FFF51CF51BF51AF519020EBFE4F51DF5CA
:100E31001EFFFEFDFCAB18AA17A916A815120AD7AA
:100E4100504BAF1CAE1BAD1AAC191209448E1D8F4D
:100E51001EAC1DAD1EEC12090BC8ECC8C9EDC9CA08
:100E6100EECACBEFCBAF1CAE1BAD1AAC191209E227
:100E7100E4FBFAF9F8120AD770A5AF18AE17AD1650
:100E8100AC15120B508F188E178D168C15AF18AE2E
:100E910017AD16AC15120CB0AB1CAA1BA91AA819D8
:100EA100120800120F008F1C8E1B8D1A8C19E51E63
:100EB10030E00B120B508F1C8E1B8D1A8C19AF1C3E
:070EC100AE1BAD1AAC1922B3
:10097B00E9D2E7C933E833F892D5EDD2E7CD33ECC2
:07098B0033FC5002B2D5223B
:10099200EC30E7100FBF000C0EBE00080DBD0004C6
:1009A2000BEB6014A2D5EB13FCED92E7FD2274FF72
:1009B200FCFDFEFF22E480F8A2D574FF13FC7D80CB
:0309C200E480EFDF
:1009C500ED33EC33601004700FED547F7005740245
:0A09D50092E0227404220422E422BE
:1009DF000209B0E86480F8E933E83360110460F08D
:1009EF00ED33EC337009E8FCE9FDEAFEEBFF22047E
:1009FF0060DED3EB9FEA9EE99DE8C2E78CF0C2F779
:100A0F0095F0400CE8CCF8E9CDF9EACEFAEBCFFB44
:100A1F0012097B85D0F05804700320D5B3E8047019
:100A2F00075002B2D50209BA92D5EC0460F7E4CCB4
:100A3F00C0E0C398F8603B94186008400DD0E0FB0D
:100A4F00020992E4FBFAC9FC8028E830E406E4C905
:100A5F00FBE4CAFCE830E305E4C9CACBFCE8540761
:100A6F006010F8C3E913F9EA13FAEB13FBEC13FC6C
:100A7F00D8F130F52FC3E49CFCEF9BFFEE9AFEED0F
:100A8F0099FDD0E0FBEF4E4D4C701222DB030209B3
:100A9F00B7EC2CFCEF33FFEE33FEED33FDED30E71B
:100AAF00EB020992EF2BFFEE3AFEED39FDD0E0FBA2
:100ABF0050130BBB00030209BAED13FDEE13FEEF4B
:080ACF0013FFEC13FC02099275
:100AD70074F8CC6480CCC86480C8F58204604FC3C6
:100AE700EB9FF5F0EA9E42F0E99D42F0E89C45F065
:100AF700603C501DE5825FFFE582D313CB5BCBF4EF
:100B07002B5582FB50280ABA002409B90020088017
:100B17001DE5825BFBE582D313CF5FCFF4C3132FB1
:100B27005582FF50090EBE00050DBD00010CC3EB39
:100B37009FF5F0EA9E42F0E99D42F0E89C45F0609F
:090B470007CC4820E701B3EC22C1
:100B5000ED33EC33600A047003BD8004ECB2E7FCB3
:010B60002272
:100EC80033DA929E35B16011377FE5FE3921848986
:100ED8003AAEC3FF3C1D955B3D6358473E75FDF038
:100EE8003F3172183F800000C2D50209BA0209B02A
:100EF800BD80FA50F30209B7ED33EC330460F17B9F
:100F08003B7AAA79B8783F120800ED33EC3392D5D2
:100F1800247B5011A2D570DB500BED448024045083
:100F280004A2D580CEEFFBEEFAEDF9ECF8120944F5
:100F3800EFF582F404FC1209101209E6C082900E43
:100F4800C87409120C10ED33CC33D0F092D525F0CB
:0A0F5800A2D57001C313CC13FD22D3
:100C7C003E9248DA3ECCCCCD3F2AAAAB40000000D5
:100C8C003F8000003F9837F03FB504F33FD744FC5A
:100C9C003E3172173EB172173F0515913EDE5BD99E
:100CAC00D2008002C200EDD2E7F8CD33EC330470F1
:100CBC000BBD800592D50209BA0209B040FBD314D2
:100CCC0060F2F5F07C3FEE7A00C39496C8948B40AA
:100CDC00230AC89469C8941A401A0AC89468C8941C
:100CEC001F40110AC8945AC89425400805F07A0090
:100CFC00CDC2E7CDC0F08C218D228E238F24EA2328
:100D0C0023C0E0248CF582E4340CF583120C6C12B5
:100D1C0009E6ECC0E0EDC0E0EEC0E0EFC0E0120C84
:100D2C005CA821A922AA23AB241209E2D0E0FBD0B3
:100D3C00E0FAD0E0F9D0E0B2E7F8120B648C218D28
:100D4C00228E238F24900C7C7403120C01A821A9F1
:100D5C0022AA23AB24120800D0E0600F2498F5825D
:100D6C00E4340CF583120C6C1209E68C218D228E66
:100D7C00238F24D0E0C3947FFDE49400FC12090B74
:100D8C007B187A727931783F120800A821A922AA1F
:100D9C0023AB241209E630000B7BD97A5B79DE7821
:050DAC003E12080022C8
:100B61000209BAEC5D046005E8590470030209B09A
:100B710012097B580460F6EC4860F2EC7004FDFE4B
:100B8100FF22C860DB2481C85009C3986002500667
:100B91000209B79850CAF582E9294B4A7005AB8220
:100BA1000209A675F0007C1A7880C3EF9BEE9AEDDE
:100BB10099400DC3EF9BFFEE9AFEED99FDE842F0DF
:100BC100DC23ACF0D0E0FFD0E0FED0E0FDAB822032
:100BD100E7101BEB60BAEC2CFCEF33FFEE33FEEDBC
:100BE10033FD020992E803F830E705C0F075F00023
:100BF100EF2FFFEE33FEED33FD40B830E7C280AAA0
:100C0100C0E0EFFBEEFAEDF9ECF8120800D0E0F5E8
:100C1100F0EFFBEEFAEDF9ECF8120C5CA3A3A3A341
:100C2100E8C0E0E9C0E0EAC0E0EBC0E0C0F01208D3
:100C310000120C6CA3A3A3A31209E6D0F0D0E0FB31
:0D0C4100D0E0FAD0E0F9D0E0F8D5F0D422F0
:100F6E0002112FE493A3F8E493A34003F68001F259
:100F7E0008DFF48029E493A3F85407240CC8C33384
:100F8E00C4540F4420C8834004F456800146F6DF53
:100F9E00E4800B01020408102040809010CBE47E08
:100FAE00019360BCA3FF543F30E509541FFEE49348
:100FBE00A360010ECF54C025E060A840B8E493A30F
:100FCE00FAE493A3F8E493A3C8C582C8CAC583CA3A
:100FDE00F0A3C8C582C8CAC583CADFE9DEE780BEF2
:01110E0000E0
:0E0C4E00C3E49FFFE49EFEE49DFDE49CFC22B7
:100C5C00E493FC740193FD740293FE740393FF22DE
:100C6C00E493F8740193F9740293FA740393FB22DE
:00000001FF
