:030000000208B63D
:0C08B600787FE4F6D8FD75810A02080086
:10080000E4F508F509F50A7F0F12088EC3E509948F
:10081000FFE508648094804003750A01D3E50994DC
:1008200000E508648094805003E4F50AAF0AEF33D2
:1008300095E0FEEF64014E700AE5091509700C158C
:100840000880080509E509700205087F0A12087189
:0208500080B571
:0908C200D2A100D2A000C2A022C4
:100852007E087D80C2A1ED5F7004C2A08002D2A09A
:0E086200C2A100D2A100C2A1EF25E0FFDEE698
:010870002265
:0308A800120852E1
:0B08AB00C2A0C2A100D2A100C2A12285
:0908CB00D2A100C2A000D2A022BB
:10088E00AC071208C27F901208A87F401208A8AFCA
:0A089E00041208521208AB0208CB46
:10087100AD071FED6016E4FEEEFD3395E0FCC3ED20
:0C0881009478EC6480948050E70E80ECCA
:01088D002248
:00000001FF
