:03000000020800F3
:0C080000787FE4F6D8FD75810F020847F0
:1009EF003F065B4F666D7D077F6FFEFDFBF7EFDF09
:060A1C00010F64010ECC85
:10090300E4F508F509F50AF50BAF0B12094A8F0850
:10091300050AC3E50A9464748094804021AF0B12E6
:10092300094A8F08E508C3950F4006E4F5907580E2
:10093300FFE508C3950F50067590FFE4F580E4FDCD
:07094300AF0812088C80C907
:090A0A00D2A100D2A000C2A0227A
:10096B007E087D80C2A1EF5D7004C2A08002D2A080
:0E097B00C2A100D2A100C2A1EF25E0FFDEE67E
:01098900224B
:10098A007F80E4FE7D08D2A0C2A100D2A10030A0DF
:0C099A0003EF4206EFC313FFDDEEAF06D3
:0109A600222E
:0A09DA00AC07120A0A7F9012096BA5
:0B09E400C2A0C2A100D2A100C2A1224B
:0B09FF00C2A1D2A000D2A100C2A12220
:090A1300D2A100C2A000D2A02271
:1009C4001209DA7F4012096B1209E4AF0412096BB1
:0609D4001209E4020A13FF
:1009A700AD071FED6016E4FEEEFD3395E0FCC3EDE9
:0C09B7009478EC6480948050E70E80EC93
:0109C3002211
:02088C00AE07B5
:10088E007B01EE75F03284FAEE75F03284E5F07588
:10089E00F00A84FFED75F00A84F50CED75F00A840C
:1008AE0085F00D9009FEE493F580D2A7C2A7EF3331
:1008BE0095E0FE74EF2FF58274093EF583E493F50F
:1008CE0080D2A6C2A67F011209A79009FDE493F576
:1008DE0080D2A7C2A7AF02EF3395E0FE74EF2FF5DB
:1008EE008274093EF583E4934480F580D2A6C2A6B5
:0508FE007F010209A7C3
:10094A001209DAEC4440FF12096B1209E4120A0A8E
:10095A007F9112096B1209E412098A1209FF020A2D
:01096A001379
:10080C00020903E493A3F8E493A34003F68001F2F6
:10081C0008DFF48029E493A3F85407240CC8C333ED
:10082C00C4540F4420C8834004F456800146F6DFBC
:10083C00E4800B0102040810204080900A1CE47E26
:10084C00019360BCA3FF543F30E509541FFEE493B1
:10085C00A360010ECF54C025E060A840B8E493A378
:10086C00FAE493A3F8E493A3C8C582C8CAC583CAA3
:10087C00F0A3C8C582C8CAC583CADFE9DEE780BE5B
:010A220000D3
:00000001FF
