:030000000211BE2C
:0C11BE00787FE4F6D8FD7581510212051F
:1013C400013B0101330101240060400004010101DB
:1013D4000101010101000000000001000000000003
:1013E40000000101000101010101010101000000EF
:1013F40000000101000000000000010000000000E6
:1014040000000000000101010101010101012E00A1
:10141400012C00012D0001280101270101350101E2
:0E1424003601013701013801013908014A0C77
:0A17A700D2A07F90121727C2A022E3
:0216A6008F169D
:1016A800E4F517E5162401FFE433FEC3E5179FEEC2
:0F16B8006480F87480985007121798051780E423
:0116C7002200
:0E17980000007F057E347DC3DDFEDEFCDFFA3F
:0117A6002220
:10172700E4FEEEC39F5012E4FDEDC39478748094F9
:0B1737008050030D80F30E80E97F015D
:011742002284
:10135100EFFD7C00640170037590FEED64024C703A
:10136100037590FDED64034C70037590FBED64040F
:101371004C70037590F7ED64054C70037590EFEDBB
:1013810064064C70037590DFED64074C7003759033
:10139100BFED64084C700375907FED4C7003759040
:1013A100FFED4C70037590FFED640B4C7002F590EE
:1013B100ED64154C700375900FED64164C70037558
:0313C100900F2268
:0817B100121680AF2202112B79
:1016800075B0F0AFB0EF64F0601B7F0A121727AFA0
:10169000B0EF64F0600FE5B0440FFF75B00FE5B038
:0516A00044F05FF5229B
:0116A5002222
:10112B00EF120C7C11AE77119A7B11867D11727EBA
:10113B0011A9B71195BB1181BD116DBE11A4D711AA
:10114B0090DB117CDD1168DE119FE7118BEB1177C2
:10115B00ED1163EE000011B6753401804975340250
:10116B008044753403803F753404803A75340580B0
:10117B00357534068030753407802B75340880261E
:10118B007534098021E4F534801C75340B80177598
:10119B00340C801275340D800D75340E8008753447
:1011AB000F80037534107524018005E4F534F524A4
:0311BB00AF34222C
:0817B900E4F5B0F522F534223D
:0117D40022F2
:10124A00E4F52FF531C3E531940874809480507326
:10125A00E4F52F753F07C374809480405BAC3FE48C
:10126A001209108F0F8E0E8D0D8C0C7F007E007D63
:10127A00007C40120DD7C004C005C006C007E53F78
:10128A0075F008A42404F582E43400F583E5822588
:10129A0031F582E43583F583E0FCE4120910D003CA
:1012AA00D002D001D0001208001209448F50E55034
:1012BA00252FF52F153F809E74402531F8A62F055E
:0412CA0031808222CB
:1015BF00753F07C3748094804029E53F75F008A4F8
:1015CF002404F582E43400F583E5822FF582E435B7
:1015DF0083F583E0FEC37407953F2440F8A60615F4
:0415EF003F80D02247
:1014F100EFFD7C007002F580ED64014C7003758096
:1015010080ED64024C7003758040ED64034C700300
:10151100758020ED64044C7003758010ED64054CFA
:101521007003758008ED64064C7003758004ED64EA
:10153100074C7003758002ED64084C7003758001DF
:011541002287
:10149F00EFFD7C006408700375A0FFED4C700375C1
:1014AF00A0FEED64014C700375A0FDED64024C705D
:1014BF000375A0FBED64034C700375A0F7ED640496
:1014CF004C700375A0EFED64054C700375A0DFED54
:1014DF0064064C700375A0BFED64074C700375A0D4
:0214EF007F225A
:1016E900E4F531D3E5319408748094805011758004
:1016F900FF7F0512149F7F01121727053180E4220D
:10109700E4F531C3E531940874809480400302116C
:1010A7002AE4F53FC3E53F9408748094805027E510
:1010B7003F75F008A42404F582E43400F583E58243
:1010C7002531F582E43583F583E0FF7440253FF849
:1010D700A607053F80CEE4F580AF3112149FE540A7
:1010E70064017002D280E54164017002D281E54259
:1010F70064017002D282E54364017002D283E54441
:1011070064017002D284E54564017002D285E54628
:1011170064017002D286E54764017002D287053107
:0411270002109A22F6
:10165700751801E4F54E121775121625E518640181
:1016670070091217C1752B01E4F5181215861215AA
:09167700421210971215F380E0F5
:10154200854A51E52C54017006E539254AF54AC30E
:10155200E54A940974809480500D85514AE539F426
:1015620004F539254AF54AD3E54A943874809480C3
:10157200400D85514AE539F404F539254AF54AAF5B
:041582004A020EEE1D
:101709008F39D3EF9400748094805003753901D3D5
:0E171900E539940874809480400375390822E5
:1015F300AF39D3EF940074809480500DEF94087446
:101603008094804004752E0222AF4AC3EF9409747C
:10161300809480500CEF9438748094804003752E2E
:021623000322A0
:10158600E4FFEFC3940874809480502CE4FEEEC30D
:10159600940874809480501DEF75F008A42404F517
:1015A60082E43400F583E5822EF582E43583F58303
:0815B600E4F00E80D90F80CA99
:0115BE00220A
:1012CE001215867F24120EEE7F23120EEE7F22124F
:1012DE000EEE7F1C120EEE7F1A120EEE7F14120E01
:1012EE00EE7F13120EEE7F12120EEE7F0A120EEE2C
:1012FE007F04120EEE7F03120EEE7F02120EEE7FB1
:10130E0020120EEE7F1F120EEE7F1E120EEE7F16B5
:10131E00120EEE7F0E120EEE7F06120EEE754E3888
:10132E00E52E2438FFE433FEC3E54E9FEE6480F8CD
:10133E007480985009AF4E120EEE054E80E21210D8
:03134E009780FB8A
:100EEE00EFFD7C00D39400748094805002800BD36D
:100EFE00ED9440EC648094804004752E0122D3ED75
:100F0E009400EC64809480400ED3ED9408EC6480E1
:100F1E0094805003752A01D3ED9408EC648094807C
:100F2E00400ED3ED9410EC648094805003752A0229
:100F3E00D3ED9410EC64809480400ED3ED9418ECB5
:100F4E00648094805003752A03D3ED9418EC64806A
:100F5E009480400ED3ED9420EC6480948050037501
:100F6E002A04D3ED9420EC64809480400ED3ED944B
:100F7E0028EC648094805003752A05D3ED9428ECF8
:100F8E0064809480400ED3ED9430EC648094805055
:100F9E0003752A06D3ED9430EC64809480400ED312
:100FAE00ED9438EC648094805003752A07D3ED9449
:100FBE0038EC64809480400ED3ED9440EC648094C1
:100FCE00805003752A08E52A1475F008A4FEC3EFB5
:100FDE009EF53075F008A424FBF582E434FFF5830A
:0F0FEE00E582252AF582E43583F5837401F0222C
:1016C800EF75F06484900000F0EF75F06484AEF07C
:1016D800EE75F00A84A3F0EE75F00A84A3E5F0F045
:0116E80022DF
:0617C800E4F52BF54B22B5
:0717C1001217C8754F012249
:10174300E54F64017013E53C6523600D852B4B0564
:0A1753002BE52B64FE7002F52B223B
:0617CE00E4F54F0217C80C
:10178700E52B654B60037F0122E52BB54B027F00FC
:01179700222F
:10175D00E52BFDEFC39DFDE49400FC4D70037F016F
:08176D0022ED4C60027F002216
:10162500052DE52D64647007F52D852C4C052CE5FD
:101635002C64647007F52C85233C0523E523640A97
:101645007007F52385263D0526E52664FE7002F51F
:0216550026224B
:10143300E52C654C60036338FFE538B52804D29486
:101443008008E528F4B53802C294E52D654D601493
:101453006337FFE537B52804D2958008E528F4B54E
:101463003702C295E523653C60146336FFE536B564
:101473002804D2968008E528F4B53602C296E526FC
:10148300653D60176335FFE535B52804D2978008BD
:0C149300E528F4B53502C2971217A72215
:10177500E4F52DF52CF523F526F54DF54CF53CF561
:021785003D2203
:10080000EC4D6011E8497017ED33EC3304600DE4F2
:10081000FCFFFEFD22E933E8330470F80209B01250
:10082000097B58046009E4CC248150062850090251
:1008300009BA2840030209B7C0E0EB4A7044B98006
:1008400006D0E0FB0209A6EF4E701CBD8008EBFF4E
:10085000EAFEE9FD80EBE98DF0A4FEE5F00208E98F
:10086000E9CDF9EAFEEBFFEF89F0A4FCE5F0CE89D3
:10087000F0A42EFFE435F0CD89F0A42DFEE435F090
:100880008067EF4E7005BD80D780C3EF8BF0A4ACBE
:10089000F0EE8BF0A42CFCE435F0F8EF8AF0A42CF9
:1008A000E5F038FCE433CB8DF0A42CFCE5F03BF80C
:1008B000EE8AF0A42CFCE5F038F8E433CF89F0A4FC
:1008C0002CFCE5F038CF3400CE89F0A42FFFE5F002
:1008D0003EFEE433C98DF0A42EFEE5F039CD8AF05A
:1008E000A42FFFE5F03EFEE43DFD33D0E0FB5007D2
:1008F0000BBB000F0209BAEC2CFCEF33FFEE33FE0A
:06090000ED33FD02099237
:1009060075F020800E75F010800575F0087D007E6C
:10091600007F003392D530D503120C4EEC334010D5
:10092600EF33FFEE33FEED33FDEC33FCD5F0ED2275
:0E093600E5F0247EA2D513CC92E7CDCEFF22B1
:10094400EDD2E7CD33EC3392D524814006E4FFFEAB
:10095400FDFC22FCE4CFCECDCC24E0501174FF800A
:10096400EDC3CC13CCCD13CDCE13CECF13CF0470A7
:07097400F030D5DE020C4E4D
:100DD7008F0B8E0A8D098C08E4FFFE7D807C3FAB6C
:100DE7000BAA0AA909A808120AD77009AF0BAE0AFD
:100DF700AD09AC0822AF0BAE0AAD09AC081209C5A4
:100E0700FBAF0FAE0EAD0DAC0C1209C5FFBF01084D
:100E1700E4FFFE7D807C3F22EF64046022EB6404E4
:100E2700601DBB0127E4FFFEFDFCAB0FAA0EA90D59
:100E3700A80C120AD760084006E4FFFEFDFC2274E6
:100E4700FFF50FF50EF50DF50C020EE5E4F510F5BF
:100E570011FFFEFDFCAB0BAA0AA909A808120AD7C5
:100E6700504BAF0FAE0EAD0DAC0C1209448E108F68
:100E770011AC10AD11EC12090BC8ECC8C9EDC9CA09
:100E8700EECACBEFCBAF0FAE0EAD0DAC0C1209E235
:100E9700E4FBFAF9F8120AD770A5AF0BAE0AAD0951
:100EA700AC08120B508F0B8E0A8D098C08AF0BAE56
:100EB7000AAD09AC08120CD6AB0FAA0EA90DA80CE7
:100EC7001208001210358F0F8E0E8D0D8C0CE51148
:100ED70030E00B120B508F0F8E0E8D0D8C0CAF0F59
:070EE700AE0EAD0DAC0C22B4
:10097B00E9D2E7C933E833F892D5EDD2E7CD33ECC2
:07098B0033FC5002B2D5223B
:10099200EC30E7100FBF000C0EBE00080DBD0004C6
:1009A2000BEB6014A2D5EB13FCED92E7FD2274FF72
:1009B200FCFDFEFF22E480F8A2D574FF13FC7D80CB
:0309C200E480EFDF
:1009C500ED33EC33601004700FED547F7005740245
:0A09D50092E0227404220422E422BE
:1009DF000209B0E86480F8E933E83360110460F08D
:1009EF00ED33EC337009E8FCE9FDEAFEEBFF22047E
:1009FF0060DED3EB9FEA9EE99DE8C2E78CF0C2F779
:100A0F0095F0400CE8CCF8E9CDF9EACEFAEBCFFB44
:100A1F0012097B85D0F05804700320D5B3E8047019
:100A2F00075002B2D50209BA92D5EC0460F7E4CCB4
:100A3F00C0E0C398F8603B94186008400DD0E0FB0D
:100A4F00020992E4FBFAC9FC8028E830E406E4C905
:100A5F00FBE4CAFCE830E305E4C9CACBFCE8540761
:100A6F006010F8C3E913F9EA13FAEB13FBEC13FC6C
:100A7F00D8F130F52FC3E49CFCEF9BFFEE9AFEED0F
:100A8F0099FDD0E0FBEF4E4D4C701222DB030209B3
:100A9F00B7EC2CFCEF33FFEE33FEED33FDED30E71B
:100AAF00EB020992EF2BFFEE3AFEED39FDD0E0FBA2
:100ABF0050130BBB00030209BAED13FDEE13FEEF4B
:080ACF0013FFEC13FC02099275
:100AD70074F8CC6480CCC86480C8F58204604FC3C6
:100AE700EB9FF5F0EA9E42F0E99D42F0E89C45F065
:100AF700603C501DE5825FFFE582D313CB5BCBF4EF
:100B07002B5582FB50280ABA002409B90020088017
:100B17001DE5825BFBE582D313CF5FCFF4C3132FB1
:100B27005582FF50090EBE00050DBD00010CC3EB39
:100B37009FF5F0EA9E42F0E99D42F0E89C45F0609F
:090B470007CC4820E701B3EC22C1
:100B5000ED33EC33600A047003BD8004ECB2E7FCB3
:010B60002272
:100FFD0033DA929E35B16011377FE5FE3921848950
:10100D003AAEC3FF3C1D955B3D6358473E75FDF001
:10101D003F3172183F800000C2D50209BA0209B0F3
:10102D00BD80FA50F30209B7ED33EC330460F17B68
:10103D003B7AAA79B8783F120800ED33EC3392D59C
:10104D00247B5011A2D570DB500BED44802404504D
:10105D0004A2D580CEEFFBEEFAEDF9ECF8120944BF
:10106D00EFF582F404FC1209101209E6C082900F0C
:10107D00FD7409120C10ED33CC33D0F092D525F060
:0A108D00A2D57001C313CC13FD229D
:100CA2003E9248DA3ECCCCCD3F2AAAAB40000000AF
:100CB2003F8000003F9837F03FB504F33FD744FC34
:100CC2003E3172173EB172173F0515913EDE5BD978
:100CD200D2008002C200EDD2E7F8CD33EC330470CB
:100CE2000BBD800592D50209BA0209B040FBD314AC
:100CF20060F2F5F07C3FEE7A00C39496C8948B4084
:100D0200230AC89469C8941A401A0AC89468C894F5
:100D12001F40110AC8945AC89425400805F07A0069
:100D2200CDC2E7CDC0F08C128D138E148F15EA233D
:100D320023C0E024B2F582E4340CF583120C6C1269
:100D420009E6ECC0E0EDC0E0EEC0E0EFC0E0120C5E
:100D52005CA812A913AA14AB151209E2D0E0FBD0C9
:100D6200E0FAD0E0F9D0E0B2E7F8120B648C128D11
:100D7200138E148F15900CA27403120C01A812A9E1
:100D820013AA14AB15120800D0E0600F24BEF5823E
:100D9200E4340CF583120C6C1209E68C128D138E5E
:100DA200148F15D0E0C3947FFDE49400FC12090B6C
:100DB2007B187A727931783F120800A812A913AA17
:100DC20014AB151209E630000B7BD97A5B79DE7819
:050DD2003E12080022A2
:100B61000209BAEC5D046005E8590470030209B09A
:100B710012097B580460F6EC4860F2EC7004FDFE4B
:100B8100FF22C860DB2481C85009C3986002500667
:100B91000209B79850CAF582E9294B4A7005AB8220
:100BA1000209A675F0007C1A7880C3EF9BEE9AEDDE
:100BB10099400DC3EF9BFFEE9AFEED99FDE842F0DF
:100BC100DC23ACF0D0E0FFD0E0FED0E0FDAB822032
:100BD100E7101BEB60BAEC2CFCEF33FFEE33FEEDBC
:100BE10033FD020992E803F830E705C0F075F00023
:100BF100EF2FFFEE33FEED33FD40B830E7C280AAA0
:100C0100C0E0EFFBEEFAEDF9ECF8120800D0E0F5E8
:100C1100F0EFFBEEFAEDF9ECF8120C5CA3A3A3A341
:100C2100E8C0E0E9C0E0EAC0E0EBC0E0C0F01208D3
:100C310000120C6CA3A3A3A31209E6D0F0D0E0FB31
:0D0C4100D0E0FAD0E0F9D0E0F8D5F0D422F0
:1011CA00021657E493A3F8E493A34003F68001F2CE
:1011DA0008DFF48029E493A3F85407240CC8C33326
:1011EA00C4540F4420C8834004F456800146F6DFF5
:1011FA00E4800B01020408102040809013C4E47EAE
:10120A00019360BCA3FF543F30E509541FFEE493E9
:10121A00A360010ECF54C025E060A840B8E493A3B0
:10122A00FAE493A3F8E493A3C8C582C8CAC583CADB
:10123A00F0A3C8C582C8CAC583CADFE9DEE780BE93
:0114320000B9
:0E0C4E00C3E49FFFE49EFEE49DFDE49CFC22B7
:100C5C00E493FC740193FD740293FE740393FF22DE
:100C6C00E493F8740193F9740293FA740393FB22DE
:100C7C00D083D082F8E4937012740193700DA3A307
:100C8C0093F8740193F5828883E47374029368601B
:060C9C00EFA3A3A380DF1B
:00000001FF
