:030000000209737F
:0C097300787FE4F6D8FD75813A0209BADD
:1009FF000C1468657265204920636F6D65000C08E3
:100A0F0048656C6C6F20776F726C64000D2D4279A6
:100A1F0020556279746520202020000D204D43550C
:0A0A2F0020776F726B73686F700020
:10080000120A5F7F14120A427F91120A8B7F0A122A
:100810000A42E4F53AAF3AEF3395E0FEC3EF940BAA
:10082000EE64809480500E7408120A787F0A120ACF
:1008300042053A80E07FD1120A8B7F0A120A42E415
:10084000F53AAF3AEF3395E0FEC3EF940BEE6480D8
:100850009480500E7414120A787F0A120A42053AE4
:1008600080E0E4F53AAF3AEF3395E0FEC3EF941140
:10087000EE64809480500E7F18120A8B7F64120AF7
:1008800042053A80E07FFA120A427FFA120A427F5A
:10089000FA120A427FFA120A42E4F53AAF3AEF330B
:1008A00095E0FEC3EF9411EE64809480500E7F1C9F
:1008B000120A8B7F0A120A42053A80E07F91120ADF
:1008C0008B7F0A120A42E4F53AAF3AEF3395E0FE25
:1008D000C3EF940CEE64809480500E7420120A785A
:1008E0007F0A120A42053A80E07FD1120A8B7F0A02
:1008F000120A42E4F53AAF3AEF3395E0FEC3EF94C3
:100900000CEE64809480500E742D120A787F0A12C7
:100910000A42053A80E0E4F53AAF3AEF3395E0FE5B
:10092000C3EF9411EE64809480500E7F18120A8BEE
:100930007F64120A42053A80E07FFA120A427FFA87
:10094000120A427FFA120A427FFA120A42E4F53A88
:10095000AF3AEF3395E0FEC3EF9411EE64809480DC
:1009600040030208087F1C120A8B7F0A120A420504
:030970003A80DDED
:100A5F007F38120A8B7F08120A8B7F01120A8B7F55
:090A6F0006120A8B7F0C020A8BAF
:0F0A8B00C2A3120A3AD2A57F0A120A42C2A522BA
:040A78002FF8E6FF6E
:0F0A7C00D2A3120A3AD2A57F0A120A42C2A522B9
:080A3A00C2A48F80C2A57F0A4F
:100A4200AD071FED6016E4FEEEFD3395E0FCC3ED4D
:0C0A52009478EC6480948050E70E80ECF7
:010A5E002275
:10097F00020800E493A3F8E493A34003F68001F286
:10098F0008DFF48029E493A3F85407240CC8C33379
:10099F00C4540F4420C8834004F456800146F6DF48
:1009AF00E4800B01020408102040809009FFE47ED0
:1009BF00019360BCA3FF543F30E509541FFEE4933D
:1009CF00A360010ECF54C025E060A840B8E493A304
:1009DF00FAE493A3F8E493A3C8C582C8CAC583CA2F
:1009EF00F0A3C8C582C8CAC583CADFE9DEE780BEE7
:010A390000BC
:00000001FF
