:030000000209589A
:0C095800787FE4F6D8FD75814402099F09
:100BD200012201011F01013E04020B000010234407
:100BE20041544520323032302F30372F3138000B0C
:100BF2003354494D452030303A30300001080A0163
:020C02003F00B1
:0A0CCC00D2A07F90120C3DC2A022BE
:020C7D008F40A6
:100C7F00E4F541E5402401FFE433FEC3E5419FEE77
:0F0C8F006480F87480985007120CBD054180E412
:010C9E002233
:0E0CBD0000007F057E347DC3DDFEDEFCDFFA25
:010CCB002206
:0D0C30008F80C2A5AF08120C3DD2A5AF0801
:100C3D00E4FEEEC39F5012E4FDEDC39478748094EE
:090C4D008050030D80F30E80E9D4
:010C5600227B
:1009E400EFFD7C00640170037590FEED64024C70B1
:1009F400037590FDED64034C70037590FBED640486
:100A04004C70037590F7ED64054C70037590EFED31
:100A140064064C70037590DFED64074C70037590A9
:100A2400BFED64084C700375907FED4C70037590B6
:100A3400FFED4C70037590FFED640B4C7002F59064
:100A4400ED64154C700375900FED64164C700375CE
:030A5400900F22DE
:100B8400EF14601C14601E1460201460221460248E
:100B940014602624FB6027240B70267580FF8024B4
:100BA4007580FE801F7580FD801A7580FB80157529
:100BB40080F780107580EF800B7580DF8006E4F588
:0E0BC40080C2A722AF22120C3DD2A7C2A722E8
:100A5700EF2492605E246EB40A005063900A6AF82D
:100A6700282873020A88020A8D020A92020A97024C
:100A77000A9C020AA1020AA6020AAB020AB0020AEB
:100A8700B575803F8030758006802B75805B80262A
:100A970075804F8021758066801C75806D80177505
:100AA700807D8012758007800D75807F8008758036
:0F0AB7006F8003758008D2A6C2A6AF1F120C3D38
:010AC600220D
:080CEA00120C57AF0A0208B119
:100C570075B0F0AFB0EF64F0601B7F0A120C3DAFC8
:100C6700B0EF64F0600FE5B0440FFF75B00FE5B06B
:050C770044F05FF50AE6
:010C7C002255
:1008B100EF12083609457709257B090C7D08F87E7A
:1008C100093DB7091DBB0907BD08F3BE0935D709A5
:1008D10016DB0902DD08EEDE092DE70911EB08FD43
:1008E100ED08E9EE00000950752001803275200203
:1008F100802D7520038028752004802375200580B4
:100901001E75200680197520078014752008800F38
:10091100752009800AE4F520F50B802E75200B75F2
:100921000B00802675200C750B00801E75200D753F
:100931000B00801675200E750B00800E75200F754B
:100941000B008006752010750B00750C018005E405
:07095100F50BF50CAF2022AD
:060CFA00120C57020C056C
:100C0500D3E50A940074809480401FE52024FE609B
:100C15000E14600F1460102403700F7521012275E6
:0B0C2500210222752103227521042208
:080CF200E4F5B0F50AF520223B
:010D000022D0
:040B3300AB07AA065C
:100B3700853E82758300D3E5829400E583648094C3
:030B4700804035B6
:100B4A007C007D0AAF03AE021208008C428D43AFCF
:100B5A0082EF25E0240FF8A64208A6437C007D0A0E
:0B0B6A00AF03AE02120800AA06AB07A2
:0E0B7500E582158270C2158380BE7E007F0F60
:010B8300224F
:100AC700120C9F7F14120C3D7F91120CD67F0A12D5
:100AD7000C3DE4F544AF44EF3395E0FED3EF940EBD
:100AE700EE64809480501274232FF8E6FF120CE016
:100AF7007F0A120C3D054480DC7FD1120CD67F0A99
:100B0700120C3DE4F544AF44EF3395E0FED3EF9488
:100B170009EE64809480501274332FF8E6FF120CAC
:0C0B2700E07F0A120C3D054480DC80FEDB
:100C9F007F38120CD67F08120CD67F01120CD67F2C
:0E0CAF0006120CD67F06120CD67F0C020CD655
:0A0CD600C2A4C2A3120C30C2A52272
:0A0CE000D2A3C2A4120C30C2A52258
:10096400020AC7E493A3F8E493A34003F68001F2D8
:1009740008DFF48029E493A3F85407240CC8C33394
:10098400C4540F4420C8834004F456800146F6DF63
:10099400E4800B0102040810204080900BD2E47E16
:1009A400019360BCA3FF543F30E509541FFEE49358
:1009B400A360010ECF54C025E060A840B8E493A31F
:1009C400FAE493A3F8E493A3C8C582C8CAC583CA4A
:1009D400F0A3C8C582C8CAC583CADFE9DEE780BE02
:010C040000EF
:10080000C2D5EC30E709B2D5E4C39DFDE49CFCEE13
:1008100030E715B2D5E4C39FFFE49EFE12085CC327
:10082000E49DFDE49CFC800312085C30D507C3E422
:060830009FFFE49EFE2282
:10083600D083D082F8E4937012740193700DA3A351
:1008460093F8740193F5828883E473740293686065
:06085600EFA3A3A380DF65
:10085C00BC000BBE0029EF8DF084FFADF022E4CC80
:10086C00F875F008EF2FFFEE33FEEC33FCEE9DEC49
:10087C00984005FCEE9DFE0FD5F0E9E4CEFD22ED8F
:10088C00F8F5F0EE8420D21CFEADF075F008EF2FD9
:10089C00FFED33FD4007985006D5F0F222C398FDCA
:0508AC000FD5F0EA2267
:00000001FF
